:020000040800F2
:100000000000022051520008855200088552000865
:100010008552000885520008855200080000000043
:100020000000000000000000000000001551000862
:100030008552000800000000BB5100081B52000858
:100040008552000885520008855200088552000834
:100050008552000885520008855200088552000824
:100060008552000885520008855200088552000814
:100070008552000885520008855200088552000804
:10008000855200088552000885520008A92E0008F4
:10009000AD2E0008855200089D2E000885520008EC
:1000A00085520008855200088552000885520008D4
:1000B00085520008855200088552000885520008C4
:1000C00085520008855200088552000885520008B4
:1000D00085520008855200088552000885520008A4
:1000E0008552000885520008855200088552000894
:1000F0008552000885520008855200088552000884
:100100008552000885520008855200088552000873
:100110008552000885520008855200088552000863
:100120008552000885520008855200088552000853
:10013000855200080000000000000000BD2E0008ED
:10014000C12E000885520008B12E00088552000813
:100150008552000885520008855200088552000823
:100160008552000885520008855200088552000813
:1001700085520008855200088552000800000000E2
:100180000000000085520008000000000000000090
:1001900085520008000000000000000085520008A1
:1001A0000000000000000000000000008552000870
:1001B00085520008855200088552000885520008C3
:1001C0008552000810B5054C237833B9044B13B1A0
:1001D0000448AFF300800123237010BD60020020AB
:1001E00000000000406700080C4B43B10C480D496B
:1001F00010B5AFF300800C48036823B910BD0A485E
:10020000036833B97047094B002BF7D0BDE81040A5
:100210001847064B002BF5D0184700BF0000000020
:10022000406700086402002058020020000000001F
:1002300043680B7043681B0A4B70C3888B70C3798B
:10024000CB7083680B7183681B0A4B7143898B7178
:10025000C37ACB71082070470B7843604A7843EA31
:10026000022343608A7843EA02434360CA7843EA40
:10027000026343600B7983604A7943EA0223836017
:100280008A7943EA02438360CA7943EA026383605E
:100290000820704700487047C56100080048704753
:1002A000A4610008004870473661000800487047A4
:1002B0001561000800487047026100080048704757
:1002C000E1600008004870474F610008004870472F
:1002D000C060000890F8E80570470138002321FA53
:1002E00003F20833202B00F8012FF8D17047436840
:1002F0002DE9F0410B7043681B0A4B70C3888B706B
:10030000C379CB700D460A1D044600216068814206
:10031000A2EB050302F104020FD2E36853F8213087
:1003200002F8043C180A02F8030C180C1B0E02F821
:10033000020C02F8013C0131E8E72269EA54216924
:10034000EA18090A5170618A9170E17CD170043316
:100350002B44002122699142A3EB050603F104031B
:100360000FD2A26952F8212003F8042C100A03F8D6
:10037000030C100C120E03F8020C03F8012C0131CF
:10038000E8E7E369AB55E269AB19120A5A70E28BF0
:100390009A70E27FDA7004360027E3699F4214D234
:1003A000636A53F8270005F07CFC80460146A819D3
:1003B000FFF793FF636A043653F82710A8194246E3
:1003C00005F07EF946440137E7E73046BDE8F081A5
:1003D000F8B50E46037906F8013B054680680F46DE
:1003E00005F05FFC044601463046FFF776FF2246E3
:1003F000A968781D05F064F9601DF8BD83882DE9B2
:10040000F0410B7083881B0A4B70054680680C46D0
:1004100005F047FC07460146A01CFFF75EFF3A4681
:10042000A968A01D05F04CF9E86805F03AFC07F151
:100430000608064601460A3704EB0800FFF74DFFA1
:100440003246E968E01905F03BF9286905F029FC16
:100450003E4401460746A0190436FFF73EFF3A46E0
:10046000A01929693E4405F02BF96B69A355344462
:100470001A0A62701A0C1B0EA270E370301DBDE8E0
:10048000F08110B500230360013911F8012F02FA41
:1004900003F4026808332243202B0260F5D110BD1B
:1004A00037B50C4611F8013B0371054601A8FFF76B
:1004B000E8FF019B621D581D111B884204D912F8E8
:1004C000011B02F8021CF7E72344002204341A71CE
:1004D000AC6003B030BD2DE9F34143680D689D4227
:1004E00004460E4604D9A900C06805F07FFBE06011
:1004F0006560321D002160688142A2EB060302F1B3
:10050000040213D212F8023C12F8030C1B0443EA53
:10051000002312F8040C034312F8010C43EA0063B1
:10052000E068A36040F821300131E4E7F218F15CA3
:1005300095785078D2782D0445EA00250D431F1D8B
:10054000236945EA02659D4204D9A900A06905F026
:100550004DFBA0612561F319002122699142A3EBB3
:10056000060503F1040313D213F8022C13F8030C4D
:10057000120442EA002213F8040C024313F8010C9F
:1005800042EA0062A069626140F821200131E4E79B
:100590007319725D9F785978DB783F0447EA012729
:1005A000174347EA0367E3699F4205F1040504D94D
:1005B000B900606A05F01AFB6062E7610027B8467F
:1005C000E3699F421AD2711901A8FFF75AFF2B1D48
:1005D000019DF2181D44911BA94204D212F8011B7F
:1005E00002F8021CF7E77219013B02F8018C626AFB
:1005F0003344236242F827300137E1E7284602B04E
:10060000BDE8F081F0B50B7883804A7885B043EA85
:10061000022383800C460646023101A8FFF731FF12
:10062000019FA31DBD1D1A1B954204D913F8012B70
:1006300003F8022CF7E7E31900225A71631DB36037
:10064000611902A8FFF71DFF2B1D029D07F10A0289
:100650001D442244111B8D4204D912F8011B02F8DB
:10066000021CF7E76119013B2344002201F8012C29
:1006700003A8F360FFF705FF0398043528446319C6
:100680001A1B904204D913F8012B03F8022CF7E748
:100690002218013D0023254402F8013C356193787E
:1006A0005178D2781B0443EA0123215C0B4343EACF
:1006B00002630430736105B0F0BD000030B585B051
:1006C0000446094B019300230293039354F8EC3B37
:1006D00001AA1B680A2105469847204604F04BFBF7
:1006E000C5F8FC0005B030BD546000082DE9F041AC
:1006F00086B02B4B009300222A4BADF80420054610
:10070000029303930493059200F20C5400F5AE6635
:100710004FF400772368BBB158689A68ADF804209D
:100720001A68036802929B68984723680390586888
:100730000368DB68984721682B68049005971B685D
:1007400009696A46284698470434B442E2D105F262
:10075000D4564FF400772068C8B14368ADF8043030
:100760008368029303689B68984703902068036836
:10077000DB6898472B6804902068D3F800800368F2
:1007800005975B6898476A4601462846C047043487
:10079000A642E0D1012385F8E83506B0BDE8F08136
:1007A0006C600008CE630008F0B585B000F1EC0580
:1007B0001F4B0193044600232846029303930E46E1
:1007C00004F0D9FAD4F8FC203146871A01A8FFF7C3
:1007D00043FD029B4FF47A76B7FBF6F21344029383
:1007E00006FB1272039B134F284607FB023203924B
:1007F00004F0C1FA029AB0FBF6F3013AD21A039957
:10080000C4F800210C4A06FB13030A4407FB132318
:10081000C4F8043104F5827104F5807000F0B8FB6F
:10082000284604F0A8FAC4F8F00505B0F0BD00BFF2
:100830005460000840420F0000CA9A3BF0B563299B
:1008400085B004460E4603DD90F8E855002D4DD0E6
:10085000136804F213311B6810469847FF2384F88D
:100860000C33FE23C0F3072284F80D33C3B284F89F
:100870000E331344DB4384F8116346F3072684F8F0
:100880000F2384F8103384F8126304F21131052227
:100890000023861DB24204DC11F8015B01322B44B7
:1008A000F8E700F108052044DB43B5F5007F80F848
:1008B00013330CDC04F543773E460434F31B9D42AE
:1008C00014DD16F8011B204600F0C8FCF6E7094BC2
:1008D000019303238DF80830074B0393236801AA83
:1008E0001B680721204698474FF0FF35284605B082
:1008F000F0BD00BF846000086B6100082DE9F0477F
:1009000000F1EC080446404604F035FAD4F8F0351E
:1009100042F6F822C31A934284BF002384F8E835D4
:10092000D4F8D435054633B1D4F8F43583423CBF0E
:100930000023C4F8D43504F10409002604F58677B1
:10094000D4F80831ABB9484600F030FBE8B994F868
:10095000E80560B1D4F8EC3540F6C412EB1A9342C6
:1009600004D92046FFF7AAFEC4F8EC550020BDE8E4
:10097000F087404604F0FFF9D4F80831401B984254
:10098000E1D96FF00100BDE8F087484600F018FBA0
:100990000028DCDBD4F8E435D4F8D4A50344BAF15C
:1009A000070FC4F8E43512D1D4F8E0355A1C2344BB
:1009B000C4F8E02583F80C01D4F8D835013BC4F81D
:1009C000D835002BBCD10823C4F8D435B8E7BAF128
:1009D000000F14D1FF2807D10123C4F8D43505F145
:1009E0001403C4F8F435ABE7404604F0C4F941F20F
:1009F0008833401B9842A3D984F8E8A5C1E7BAF12F
:100A0000010F0DD1FE2801D10223DDE794F8E8356E
:100A1000C4F8D465002B93D12046FFF74FFE8FE733
:100A2000BAF1020F09D1C4F8D805C4F8E065032370
:100A3000C4F8D435C4F8E40582E7BAF1030F07D14E
:100A4000D4F8D83503EB0020C4F8D8050423BBE75D
:100A5000BAF1040F0BD15A42D2B2DBB258BF5342A3
:100A6000FF2B01D10523AFE7C4F8D46568E7BAF1DD
:100A7000050F03D1C4F8DC050623D9E7BAF1060F48
:100A80000BD1D4F8DC3503EB00200723C4F8D435B0
:100A9000C4F8DC05D4F8D83593E7BAF1080F7FF431
:100AA0004FAF5A42D2B2DBB258BF5342FF2BC4F809
:100AB000D4657FF445AFD4F8DC356BB92046FFF739
:100AC000FDFD2046FFF712FEC4F8EC55C4F8F055C2
:100AD0004FF0FF30BDE8F0870A2B04D1394620469D
:100AE000FFF762FE2CE7062B08D1394604F2FC50D2
:100AF000FFF7F1FC012384F8F83521E70B2B02D135
:100B000084F8E8651CE7F83354F8230000283FF424
:100B100017AF036839461B68984711E700B5ADF277
:100B2000047D3C4B379300240423032202218DE8EB
:100B3000180038A84FF4807300F020FB72A804F06E
:100B400030F94FF4614372A8719304F0E8F84FF460
:100B5000007221467AA8769477947894799404F078
:100B6000D4FD4FF400722146FAA804F0CEFD6422B1
:100B700021460DF5BD6004F0C8FD642221460DF24A
:100B80004C6004F0C2FD244BCDF8D8360DF2EC6277
:100B900000234FF4E13138A813607191CDF8B046CD
:100BA000CDF8B446CDF8B846CDF8BC46CDF8C04631
:100BB0008DF8C446CDF8C846CDF8CC46CDF8D04621
:100BC0008DF8D446CDF8DC46CDF8E046CDF8E446C5
:100BD000CDF8E846CDF8F046CDF8F446CDF8F84625
:100BE000CDF8FC4603F0B8FF37A902A8CDF8B0460F
:100BF000CDF8B446CDF8BC46CDF8B84600F014F9AF
:100C000002A800F0D7F837A8FFF778FE142004F008
:100C100027F9F5E7B46000089C60000803790B70C1
:100C2000012070470B78037101207047004870471E
:100C30009D620008004870477C62000843680B70A2
:100C40001A0A4A701A0C1B0E8A70CB700420704767
:100C50000B6843600420704700487047CC6200086E
:100C600000487047AB6200080020704700207047C2
:100C700000487047FC62000800487047DB620008CB
:100C8000002070470020704700487047FC62000851
:100C900000487047DB6200084B6883627047436816
:100CA0001A6803681A420EBF8268C2681B04136088
:100CB00090F8203083F0010380F820307047032043
:100CC0007047000000487047FC6200080048704709
:100CD000DB62000870B5044600F10C052846FFF7FA
:100CE000B7FFA269E069636912F0010F4FEA62027F
:100CF00018BF8158104418BFCB582946BDE8704032
:100D00001847006A7047000000487047CC6200082E
:100D100000487047AB62000810B48269C4690B7860
:100D2000037412F0010F4FEA620243691CBFA1581D
:100D3000CB5800F10C01A0185DF8044B1847006A6D
:100D400070470000004870479D62000800487047E7
:100D50007C6200080A79036822B181680B6080F820
:100D600020207047C1681B04F8E7C3681A6810B4F4
:100D700014680A468168184623465DF8044B1847F4
:100D800070B500F10C010446C06A266BA36A10F02E
:100D9000010F4FEA600004F1100518BF32583044CB
:100DA00018BFD3582A469847294604F11400FFF784
:100DB000DCFF70BD10B5044672B600F11C01303086
:100DC000FFF7D3FF04F1240104F14400FFF7CDFF46
:100DD00062B610BD10B500F20C52002352F8044B5D
:100DE00044B900EB83027D33C2F80C15C8608B60F8
:100DF000012010BD0133192BF0D1002010BD10B51A
:100E000000F5AE62002352F8044B3CB903F5AE7214
:100E1000643340F822104B60012010BD0133192BC0
:100E2000F1D1002010BD000070B51C2204460D4613
:100E3000002104F06AFC2046052100F0D1FA3B4A6B
:100E4000E26162663A4AE2660122A267C4F89C2027
:100E5000384AC4F884203848384A39496064C4F8AC
:100E6000A02004F12400374A6162A064C4F888100D
:100E7000C4F8AC20344B35483549364A2363A06565
:100E800004F11C03C4F89010C4F8B02004F1B001C0
:100E9000314A3248636320660023C4F8B420C4F8A2
:100EA000B810C4F8A8202E482E4A23640221636596
:100EB00084F868302367C4F88C30C4F89430E06755
:100EC000C4F8C4106467C4F89840C4F8D040C4F8AB
:100ED000C8202268E168C4F8CC301204E5622846D4
:100EE0000A6084F82030A36204F13001FFF772FF3A
:100EF00004F14401E06AFFF76DFF04F15801E06A74
:100F0000FFF77DFF04F17C01E06AFFF778FFE56AF7
:100F100004F1B40104F1A0062846FFF75BFF314657
:100F20002846FFF76CFF204670BD00BFDC6100085B
:100F3000550D00082E630008176300086C62000856
:100F4000F46100080C6200080B6300083C620008B2
:100F5000990C000824620008396300082563000822
:100F6000546200089F0C00080748084A08B5121A86
:100F7000002104F0CAFB04F033F804F019FB04F07C
:100F800036F804F071F800BF60020020E82100206C
:100F900030B502680D68044CB5FBF4F31A4404FB49
:100FA000135302600B6030BD00CA9A3BD0F8C020DA
:100FB000D0F8C400101A18BF0120704701207047F4
:100FC00010B5D0F8C420D0F8BC100346501CC3F8AC
:100FD000C400885CD3F8C820D3F8C440013AB4FBFD
:100FE000F2F102FB1142C3F8C42010BD034610B158
:100FF00007C983E807007047704742688168036843
:1010000012F0010F4FEA62021CBF8858C3588818BB
:101010001847C36810B504460BB19B689847204633
:1010200010BD30B5044685B000F14C05284602F0ED
:1010300073FA30B3D4F8D020D4F8D4309A4216D012
:10104000D4F8D430D4F8CC20591CC4F8D410D15CD6
:10105000D4F8D830D4F8D400013BB0FBF3F203FB52
:101060001203C4F8D430284602F060FADEE7002309
:10107000204601226946039303F0FCFD6846FFF712
:10108000C8FF05B030BDC36810B504460BB19B68FE
:101090009847204610BD000070B506460B4B46F839
:1010A000983B044646B100F1B805B54204D0103D66
:1010B0002846FFF7AEFFF8E704F13800FFF7E3FF3B
:1010C00004F12800FFF7DFFF204670BD60660008CE
:1010D00010B50446FFF7E0FF204603F0E1FF20468D
:1010E00010BD000030B5134B036085B000252A46C3
:1010F00069460446039503F0BDFD6846FFF789FF86
:10110000012269462046039503F0B4FD6846FFF7C7
:1011100080FF04F1CC0000F023F904F1BC0000F0E2
:101120001FF9054B23602046FFF7B6FF204605B0A8
:1011300030BD00BFD86300087866000810B50446CB
:10114000FFF7D0FF204603F0ABFF204610BD0000A4
:1011500010B586B08DE80C00019B029203930491B8
:10116000054B9DF82020059302A903F083FD02A8FA
:10117000FFF74FFF06B010BD486300087FB5044677
:101180001D464FF41653089E03F0ACFD20460F4B4E
:1011900040F8BC3B294600F0F2F806FB05F104F1EB
:1011A000CC0000F0ECF80A4B029300230393009369
:1011B00004AB204613E90C002146FFF7C9FF204687
:1011C000C4F8DC50C4F8E06004B070BDD863000817
:1011D0003B12000870B5044686B04C3002F09CF912
:1011E000C0B102AD0122294600262046059603F033
:1011F00041FD2846FFF70DFF2046FFF712FF064B83
:10120000029301230396009395E80C0021462046A3
:10121000FFF79EFF06B070BD231000084368026808
:1012200010B55C1C4460D154C3684168013BB1FBFC
:10123000F3F203FB1213436010BD38B500F14C0507
:101240000446284602F04CF938B1284602F052F91B
:10125000C1B204F1BC00FFF7E1FF38BD38B5054667
:101260000C46CC30C9B2FFF7D9FF2846FFF7B2FFD2
:10127000204638BD2DE9F04107460C46B1B10D4678
:1012800000F1CC082E4616F8011B21B14046FFF7AD
:10129000C5FF3546F6E70A214046FFF7BFFF2C1B86
:1012A0003846FFF797FF601CBDE8F0810846BDE8AF
:1012B000F0812DE9F04107460D4691B1A2B18C189D
:1012C0000E4600F1CC08B44205D016F8011B40468A
:1012D000FFF7A4FFF7E73846FFF77CFF601BBDE888
:1012E000F0810846BDE8F0811046BDE8F0810000BD
:1012F0000EB42DE9F04185B0D0F8DC2002AFD31D4B
:1013000023F0070307F12404ADEB030D54F8048B1D
:1013100002AE05460021304604F0F7F92246414668
:1013200030467C6004F0DEFCD5F8DC3083420246B7
:101330000CD200905D220848084900F017F90020FF
:101340000C37BD46BDE8F04103B070473146284632
:10135000FFF7AFFFF4E700BF956300085463000890
:1013600010B50446006808B103F096FE204610BD93
:1013700000214160C2688160006804F0C6B938B5D8
:10138000044608460D4603F07BFEE56020602046DB
:10139000FFF7EEFF204638BD38B504460D4603681A
:1013A0005AB1826813602046012101F0BFFC294632
:1013B0002046BDE8384001F0B5BCC2681B04F1E727
:1013C00070B50E460446154601F08CFC013606D079
:1013D0002A4620460021BDE87040FFF7DDBF70BD02
:1013E0000022FFF7EDBF00000048704704640008CA
:1013F000014800F003B800BF04640008036870B53A
:10140000DB680446984763685A6823681AB99B6882
:10141000BDE8704018475B68156898476368281AEC
:1014200000285A6807DC916859601B68002BEAD0D5
:1014300050689847E7E7236810681B69BDE870406B
:10144000184703685B68184710B5044601300DD192
:1014500010BD9C4209D12046896801F097FD2046C5
:101460000021BDE8104001F015BE0C31B1F900308B
:101470005A1CEED10248BDE8104000F077B800BF1A
:1014800051640008884208B508D0431C06D00131D9
:1014900006D0044800F06AF84FF0FF31084608BD56
:1014A0000146FBE720640008B1F900305A1C01D165
:1014B00018467047834201D1486870470C31F3E702
:1014C000421C10B5044607D0FFF7EEFF431C04464C
:1014D00002D1024800F04AF8204610BD31640008ED
:1014E00000B589B000F018F8052101A8FFF778FFD2
:1014F000039B019A1A60962003F0B2FC019B049AA8
:101500001B041360962003F0ABFCF1E7EFF31080AF
:10151000C04300F00100704708B5FFF7F7FF72B64F
:10152000064B1A6822B980F00100054AC0B210705B
:101530001A681A6801321A6008BD00BF88020020CC
:101540008402002008B5074B1A6852B1FFF7DEFF8E
:101550001A68013A1A601B681BB9034B1B7803B960
:1015600062B608BD88020020840200200FB401206A
:1015700008B503F079FD01F002BC000008B5024C8B
:1015800023689847FCE700BFC801002030B5027807
:101590008C784368013AD2B213B19D78A54207D244
:1015A000022A4B60416006D803B19960886030BD63
:1015B00018465B68F0E700238B6030BD0278436813
:1015C000013A59684160022A4FF0000205D809B17A
:1015D00088605A609A60184670475A60FBE70000BE
:1015E000034B5A684260002282605860704700BF17
:1015F000F8160020104BDA6810B58AB19A8ADC68B8
:101600008A420CD3C460D860C468036104B120610D
:10161000521A92B28282998A8A1A9A8210BD3CB971
:1016200000248A1AC460D86003619A82848210BD43
:10163000A38A1A442346E2E7101700202DE9F0415F
:10164000174DEB6853B1AB8A164FDFF85C80013B56
:10165000AB820026AA8A0AB9EC680CB9BDE8F08111
:10166000A36833B161685960616809B18B606260D9
:10167000A66021463846FFF789FFA38AAB826378CC
:10168000042B01BFD8F80030E28A9B18A382012303
:101690006370E368EB600BB11D61E6602661D9E71A
:1016A00010170020F81600205421002083682BB169
:1016B00042685A6042685AB193607047054B5A6855
:1016C000904202D142685A6070471346002AF6D110
:1016D000704700BFF816002010B5846801462CB989
:1016E0004378012B0DD1074C03E0A4682378002B2D
:1016F000FBD00846FFF7DAFF2046BDE81040FFF7B1
:1017000045BF10BDF8160020036910B563B1C2686B
:10171000DA60C2684AB1998A848A21449982136145
:101720000023C3600023036110BD9A82FAE7000022
:1017300070B4114BDD78EFF31086EFF3108272B6C0
:101740009A78954211D901329A701A78541CA542A0
:1017500008BF00241C7006B962B6954207D903EB96
:10176000C20370BC586099607047002EF4D002200C
:1017700070BC00F029B800BF2817002008B50B483E
:1017800000F0A4FC0A4B18600A4800F09FFC0A4BCA
:1017900018600A4800F09AFC094B186003F008FF33
:1017A00000210846BDE8084003F021BCB0640008F1
:1017B000B0170020AC64000894020020A864000860
:1017C0008C020020FFF7DABE10B5044600F0ECFBF7
:1017D00021460246BDE810400148FFF7C7BE00BFE2
:1017E0007064000803F05EBC0B4A0C4B0C4830B42C
:1017F0001A60C2F1005303F50033B3F5806F194648
:1018000028BF4FF48061074D074C01605B1A1A44F2
:101810002A60236030BC7047E8210020E8160020D1
:10182000980200209C020020E416002000F022FD17
:10183000FFF7DAFF0348002100F0D0FC00F036FB90
:10184000FEE70000CC010020024B4FF0FF3118688A
:1018500000F05ABC94020020014B186800F07CBCD8
:1018600094020020836A9B0804BF224B1B88F0B5BA
:10187000056B08BF9B0805EB8302540748BF043A79
:101880004FF0807602E94200A2F14004A2F1440642
:10189000A2F10C074FF0000E46F804EFBE42FBD158
:1018A000C66942F8206C41631249C4620968C900E4
:1018B00017D5112B15D9103B6FF007015B084B436F
:1018C000A3F138010A444FF0CC30214691420BD1AC
:1018D00008331C44231F9D423CBF4FF0CC3344F8D7
:1018E000043C054B2B60F0BD41F8040C41F8080D99
:1018F000ECE700BFB8640008A52E5AE290F8252056
:10190000C36A12B16033196070472033FBE710B52A
:1019100090F82540C36A1CB1603383E8060010BD0F
:101920002033FAE7054B1B7823B9054B4FF0805263
:101930001A607047034B01221A707047F0120020A2
:1019400004ED00E0F112002038B51A4B1A4C18686B
:1019500001234370FFF744FE6578A3783BB917482D
:101960006570FFF72BFEBDE8384000F05DBD04EB6D
:10197000C503586802789AB9198900F0BBF9E37871
:1019800001359D4208BF0025EFF31083EFF310826D
:1019900072B6A278013AA270002BDED162B6DCE703
:1019A000012A03D1996800F033F9E8E701F044F81F
:1019B000E5E700BF0C21002028170020F8160020C2
:1019C000084B1A68084B1A6000225A60072243F835
:1019D000042C064A136843F07F4313604FF0FF3036
:1019E000704700BFD064000814E000E020ED00E084
:1019F0007047000008B50B4B186801234370FFF7D0
:101A0000EFFD00F0ADF9084A136801331360FFF7EA
:101A100015FE00F091FC0548FFF7D0FDBDE8084039
:101A200000F002BD0C21002054210020F8160020F7
:101A3000064B1A68136BD26A934203D81A68044B98
:101A40009A4202D00120FFF7BFBE70470C21002050
:101A5000A52E5AE2002ABBBF22F000420732033211
:101A600022F00702A8BF22F0030210B5B4BF102372
:101A70000C2392B1D4188C420FD801440344544231
:101A800041600360826021449818814202D3005172
:101A90000346F9E70020186010BD012010BDEFF3E8
:101AA000108372B6026803F001030AB11168016085
:101AB00003B962B61046704781420DD3436899421C
:101AC0000AD2EFF3108372B602680A60016013F065
:101AD000010003D162B670470120704700207047B3
:101AE0000123103903708908002343708370436019
:101AF000038143818381C1817047000070B585896E
:101B000004461646002D38D043891A1D013350F87B
:101B100022200A60C2899BB29A42438104BF0023FB
:101B200043814368F3B14378022B1BD1FFF746FD95
:101B300000210546FFF7E2FE2389E9691A1D0133FA
:101B400044F82210E2899BB29A42238108BF002305
:101B5000284608BF2381FFF7D7FD284600F07EFC0A
:101B6000002070BDEFF31080EFF3108372B6013DDB
:101B7000A5810028F4D162B670BD4AB14268094B14
:101B800042B11968FFF702FD0821304600F08AFCD7
:101B9000012070BD1B6843605A6098600123437048
:101BA000F2E700BF0C210020C2898089101A70471B
:101BB00008B5FFF7BDFDBDE80840FFF7B3BE838958
:101BC00010B504460BB34389043350F823300B603F
:101BD0004378022B04D10021FFF7AAFDFFF7A2FEF4
:101BE000EFF31083EFF3108272B6A289013AA2815B
:101BF00003B962B66389E28901339BB29A42638179
:101C000001D100236381042010BD184610BD0000DF
:101C1000436870B504460E46002B4BD04578022D24
:101C200020D0032D0AD0012D61D1FFF7C7FC044657
:101C300032461021FFF76BFE65700EE00846FFF795
:101C40002EFF0546002852D02046FFF7B7FC294654
:101C50000446FFF753FE012363702046FFF754FD4F
:101C6000214622E0FFF7AAFC00210546FFF746FEC9
:101C70002389E9691A1D44F82210EFF31082EFF36B
:101C8000108172B6A1890131A18102B962B6E289DF
:101C900001339BB29A42238104BF00232381012395
:101CA0006B702846FFF730FD29461148BDE87040AB
:101CB000FFF76CBC8089E189884213D223891A1D01
:101CC00044F82260EFF31082EFF3108572B6013012
:101CD000A08102B962B601339BB2994208BF0023CA
:101CE000238170BD0320BDE87040FFF76DBD70BD5E
:101CF000F816002010B5038B42781943062A0446D3
:101D00000183438B15D133EA010219D121EA030182
:101D100021832046FFF7F8FC012320466370628B85
:101D20000821FFF7F4FD21460648BDE81040FFF703
:101D30002DBC052A04D111EA030201D04283E5E754
:101D400010BD00BFF8160020034B00221A60034AA2
:101D50001268DA80704700BFF8200020B4640008E1
:101D600008B50E4B5A680E4B196891420D4905D0C3
:101D70001A60DA880868013A02449A8098880A88CA
:101D800090420AD1002205481A60FFF717FCBDE80F
:101D9000084001460148FFF7F9BB08BDF8160020CE
:101DA000F8200020542100200B4A136830B500248D
:101DB00043B90360816013B19D68691A996044B1A9
:101DC000206030BD9D68A942F3D31C46491B1B68A7
:101DD000EEE7106030BD00BF08210020C0B1431CF9
:101DE00011D00C4B984211D80B4B1B684FF47A71F1
:101DF0005A1E01FB0020B0FBF3F34FF6FE70834246
:101E000006D898B270474FF6FF7070474FF6FE70D5
:101E1000704700BF00093D006C64000838B18307BB
:101E200004D10378002B18BF0020704700207047B2
:101E3000B0B50E4D287800AFA8B90D4C236893F8C3
:101E4000241000F051FB2368DA78FF2A03D1DA6A04
:101E5000203282F3098862680AB984E80C0000F035
:101E6000FBFC01232B700020B0BD00BF052100202A
:101E70000C210020014B1878704700BF052100207D
:101E800010B5EFF3108434B9EFF305841CB9EFF308
:101E90001484E40702D4034B187810BDDFF808C09F
:101EA00000DF10BD05210020751E000890B589B027
:101EB00000AFEFF31083002B37D1EFF30583002B36
:101EC00033D1FFF7DDFF28B9194C246814B16468D9
:101ED00004B1A047EFF3148404F00304022C18D0DB
:101EE000032C1CD0012C1ED007F1200484F3098898
:101EF000104C2478E40710D5022484F31488BFF32F
:101F00004F8FBFF36F8FDFF830C000DF2437BD463F
:101F100090BD084C2478E407F5D40324EDE7054C84
:101F20002478E407EFD5FF20F0E78220EEE700BF3A
:101F3000F42000209A640008311E000870B50B469A
:101F40001646024610B90024204670BD00680028DD
:101F5000F9D0B2F90440E51CADB2062DF3D8D16832
:101F6000C1B11269043444EA012100F0FBFA0028EF
:101F7000E9D00A4B0A4A013853F82040E36A5A6311
:101F8000084B1B6843B19B6833B13146E0789847F2
:101F9000E063D9E70A46E5E7E663D5E7D81A00200B
:101FA00029210008F420002008B500F095FA18B1A6
:101FB0000138024B53F8200008BD00BFD81A00209A
:101FC00010B5FFF72BFF044670B1084B1B681BB11F
:101FD000DB680BB1C06B9847E07800F019FBFF2875
:101FE0000CBF8120002010BD802010BDF4200020F7
:101FF00008B528B1FFF7F2FE00F01AFD402008BD39
:1020000008BD000010B5EFF3108434B9EFF3058478
:102010001CB9DFF80CC000DF10BD822010BD00002D
:10202000F11F0008830705D138B1436901691B68B6
:102030001846704700231946FAE70346FBE70000FD
:1020400010B504460846DFF80CC000DF84E8030042
:10205000204610BD2520000810B548B1046824B101
:10206000237823B9204600F03DFC204610BD002017
:1020700010BD70B510F0030405460E4611D180B1B5
:102080000378032B0DD10846FFF7A8FE014628462A
:1020900000F0A0FC012806D1002E14BFC120812031
:1020A00070BD802070BD204670BD820708B50AD182
:1020B00048B10378032B06D100F01CFCFF280CBFAD
:1020C0008120002008BD802008BD000070B50546B5
:1020D000EFF3108494B9EFF305867EB9EFF314841F
:1020E000E40706D4064C24781CB9BDE87040FFF71D
:1020F000B3BF2846DFF80CC000DF70BD002070BD04
:10210000052100205920000810B5EFF3108434B9E0
:10211000EFF305841CB9DFF80CC000DF10BD82208E
:1021200010BD000073200008084808B54FF0FF31CB
:102130000068FFF7E9FFDFF818C000DF0446FFF78B
:1021400051FB2046DFF80CC000DFFEE70021002035
:10215000A91F0008C11F000810B5EFF3108434B99F
:10216000EFF305841CB9DFF80CC000DF10BD82203E
:1021700010BD0000AB2000082DE9F04180460F465D
:102180001646EFF3108404BBEFF30583D3B9EFF3E6
:102190001483DB0706D40E4B1B781BB9BDE8F04156
:1021A000FFF7CCBE0B4D4FF0FF312868FFF7ACFFB7
:1021B000404639463246DFF820C000DF0446286832
:1021C000FFF7CAFF2046BDE8F0810024FAE700BF10
:1021D00005210020002100203D1F00080022FFF7FC
:1021E000CBBF10B5044660B1016851B1406848B139
:1021F000037833B90431890089B2FFF771FC606854
:1022000010BD002010BD000038B5114C23780BB96B
:1022100000F0A8FA0F4B25781B68FF229A708DB941
:1022200029460D48FFF7DDFF0C4B2A46186029466A
:102230000B48FFF783FE0B4B18600B48FFF746FF78
:102240000A4B186001232370094B0020187038BD19
:10225000042100200C210020A0640008B4170020F5
:10226000BC640008AC170020D464000800210020E2
:102270000521002010B5EFF3108474B9EFF3058445
:102280005CB9EFF31484E40703D4BDE81040FFF712
:10229000BBBFDFF80CC000DF10BD822010BD000006
:1022A000092200082DE9FF410C46804618B3037847
:1022B000012B25D10846FFF791FD02A902464046B1
:1022C000FFF71CFC012811D10020002C0246034618
:1022D00018BF4020029904460D4616461F46204668
:1022E000294632463B4604B0BDE8F0810020024654
:1022F00003461020EEE78024054606460746EEE733
:10230000002580242E462F46E9E770B50E46144678
:10231000054660B15AB90378012B08D1FFF744FC98
:1023200038B128463146FFF743FC204670BD802077
:1023300070BD812070BD0000F8B5114E34682CB11D
:10234000A368104F013BA360A26802B1F8BD2568E5
:10235000386835602146FFF7D8FF10B10420FFF739
:1023600033FA6379012B07D1E1682046FFF71CFDA2
:10237000002DEBD02C46E7E701232371F8E700BFDF
:1023800008210020B41700207FB5044616460846F1
:1023900001B122B180232360204604B070BD0B78C8
:1023A000012BF7D102A9FFF70AFC042808BF10236C
:1023B00001AD14BF0196019395E8070084E807007A
:1023C000EAE7000038B504461546EFF3108010B96F
:1023D000EFF3058028B12A462046FFF7D5FF2046B7
:1023E00038BD08461146DFF80CC000DF84E807005E
:1023F000F5E70000A52200087FB50A4C21684FF0E0
:10240000FF3203A8FFF7DEFF039B102BF6D10499E0
:1024100001A8FFF715FE019B002BEFD0029898470B
:10242000ECE700BFB4170020054B5860022343704F
:10243000044B1B681BB11B690BB1C06B184770477D
:102440000C210020F420002008B50348FFF7B6F85F
:10245000BDE80840FFF7E8BFF816002070B5044655
:1024600018B9BDE87040FFF7EFBF0C4EA278306896
:1024700083789A424FF0010508D9FFF7B1F8336825
:102480005D702046BDE87040FFF7CEBF6570214605
:102490000348BDE87040FFF779B800BF0C21002069
:1024A000F816002038B50D46014680B14FF6FF738F
:1024B0009842074C02D02068FFF79CF82368054833
:1024C0005D70FFF77BF8BDE83840FFF7ADBF38BD62
:1024D0000C210020F8160020024B186800B1C078CB
:1024E000704700BF0C21002010B5A8B9194B1B681C
:1024F000997083F82410184843689B788B4201D860
:10250000002010BD134C2168FFF740F8236801221A
:102510005A70FFF799FFF3E7104B1B88984217D8C2
:1025200001380F4B53F8204094B10A4BA1701B683F
:1025300084F824109C42DED02046FFF7CDF8637863
:10254000012BDDD10448FFF739F8FFF787FFD7E704
:10255000FF2010BD0C210020F81600209C6400080C
:10256000D81A00202DE9F04711F0FF0F0D468046E4
:10257000234816469A4608BF0135FFF790FA0446ED
:1025800020B94FF000094846BDE8F0871D4B0663AF
:102590001B881D4E280AA06200218B4201F101090F
:1025A000EFD006EB89020F4652F8042C4946002A68
:1025B000F3D1EDB2012384F80390C4F81CA0C4F851
:1025C00038A022706370A57084F824506260A26005
:1025D000E26022612262A282E2822283628384F824
:1025E000252018B90948FFF75AFA206320464146CA
:1025F000FFF738F9204646F82740FFF72FFFC2E7DC
:10260000141B00209C640008D81A0020E01E002043
:102610002DE9F84F4D4D18B12B68DB78984241D128
:102620002C68DFF83C810023637002F048FDE06213
:10263000FFF7FEF92B681C6A0127A4B92A684449F0
:10264000D3784448013B41F82340116BFFF734FA3B
:10265000296841480C63FFF72FFA2C60FFF7F4FE5E
:102660002046BDE8F88F6368B3B12046FEF7A6FFA9
:1026700000210646FFF742F93046FFF745F877702C
:1026800031464046FEF782FFE368326A6780A66003
:10269000E26034621C46D0E7E2686380A360E360D6
:1026A0001446CAE72D4B1B8898424DD8284B471E2D
:1026B000994653F82760002E46D03046FEF7F6FFC5
:1026C0003046FFF721F8DFF898B0346A4FF0010A7E
:1026D000B4B9316B1F4849F82740FFF7EDF931468F
:1026E00034631D48FFF7E8F91D48296843689A7864
:1026F0008B789A42B4D901234B70FEF747FFADE7C0
:102700006368DBB12046FEF759FF00218046FFF7E2
:10271000F5F84046FEF7F8FF88F801A04146584614
:10272000FEF734FFE368D8F82020A4F802A0C4F82C
:102730000880E260C8F820401C46C9E7E268638070
:10274000A360E3601446C3E7FF2489E70C2100205F
:10275000D81A0020E01E0020141B00209C640008F2
:10276000F816002038B52C4B2C491A88002318463F
:1027700093424DD32A4B2B4819882B4C4022FFF70C
:1027800069F92A4B2A481A882A4B42F000421968F4
:10279000FFF760F9284B1988284B08221868FFF7C3
:1027A00059F9FF230025E3702148A56201236370D6
:1027B0002570A57084F824506560A560E5602561EA
:1027C0002562A582E5822583658384F82550FFF77D
:1027D00066F91B4920632046FFF744F8194B042291
:1027E0001A705D60184B1A70DD601D619D82174B79
:1027F00020461C6002236370FFF716FE144A154B37
:1028000012781D705D70DA70BDE83840FFF79CBA31
:1028100041F823000133ABE79C640008D81A00207C
:1028200068640008141B002014210020B86400080C
:10283000E01E0020646400086A6400089002002022
:10284000C5170008F8160020101700200C210020E2
:10285000996400082817002008B51E4B1A6842F436
:102860007F021A601B681B0203F07F43DB43B3FA4D
:1028700083F3194A194812680168DBB2C3F10803EF
:10288000C2F30222934298BF531C6FF0807202FA87
:1028900003F303F07F4321F07F4213430360FFF70C
:1028A0008FF80F4B0028186012DB00F1604000F534
:1028B0006440FF2202701A6853099B0003F16043D1
:1028C00003F5614302F01F02012101FA02F21A60CE
:1028D00008BD00BF20ED00E00CED00E01CED00E0C5
:1028E000F0200020032303700023438043608360B3
:1028F000C36070472DE9F84343880546002B63D039
:10290000324F81683A6891425ED1013B9BB243806D
:102910001BB100242046BDE8F8830B6A984229D1F8
:10292000C3680B6291F824300C6A5CBB8B706A68D8
:10293000DFF89C80002A3BD02846FEF73FFE214668
:102940000646FEF7DBFF3046FEF7DEFE336AEB603D
:102950004FF001093968D8F80430A5F80290AE604C
:1029600035628A789B789A4214D33046FFF776FD19
:10297000D0E71346002BD5D0DA689542F9D1EA6842
:10298000DA60CFE762681AB19278934238BF134693
:10299000E468CAE74046FEF7F9FD31464046FEF7D7
:1029A000F5FD3B6883F8019086F801902046DDE74D
:1029B000D8F8042092789A42ABD94046FEF7E6FD5B
:1029C0003B6801225A70F1E7FF24A3E70C210020A5
:1029D000F8160020438870B504460E46134D43B9DF
:1029E0002A688260116AC16010620133638000202E
:1029F00070BD80682A689042F7D081B19378827860
:102A00009A4202D28370FEF767FE62684AB1296873
:102A10002046FEF7BBFD09213046FFF743FD0120AC
:102A200070BD2B6863605A609C60F4E70C21002045
:102A30000321FFF737BD0000426810B57AB1FEF7F9
:102A4000BDFD0446FEF760FE012161702046FEF7E1
:102A500055FF21460448BDE81040FEF797BD428867
:102A60000132428010BD00BFF816002070B5134C33
:102A700023681A69950707D5DA68900704D56FF0BF
:102A800002021A61FEF7B4FC23681A69510713D5D4
:102A9000DA68520710D56FF00402094E1A615D6AB8
:102AA0003368EB1AB3F57A7F06D302F01FF8236878
:102AB00005F57A729A63356070BD00BF5821002019
:102AC0000413002030B589B001A903A801F08AFFE2
:102AD00001F058FF00230293244B01901A6C244C00
:102AE00042F008021A641A6C02F008020292029A7A
:102AF0001A6A42F008021A621A6A22F008021A627E
:102B0000069AA3F50B3323604FF0FF33E360194BB4
:102B10004ABBB0FBF3F00138002560601448256122
:102B2000A560656101F0DAFD1349322000F054FE22
:102B3000124B0F484FF480225A60294601F00EFED6
:102B400004210B4801F00AFE23680D4A596A1160FE
:102B5000126802F57A729A63DA68284642F0040233
:102B6000DA6009B030BD4000D3E700BF0038024052
:102B70005821002040420F006D2A000800E100E0CB
:102B800004130020034B044A1360DA6822F00402A5
:102B9000DA607047000C004058210020034B044AC3
:102BA0001360DA6842F00402DA607047000C0040FB
:102BB0005821002000B5002389B007286FD8DFE82E
:102BC00000F00413202D3A4754610093364B3748E8
:102BD0001A6B42F001021A631B6B03F001030093AE
:102BE000009B09B05DF804FB01932F4B30481A6B32
:102BF00042F002021A631B6B03F002030193019B74
:102C0000EFE70293284B2B481A6B42F004021A6339
:102C10001B6B03F004030293029BE2E70393224B36
:102C200025481A6B42F008021A631B6B03F0080375
:102C30000393039BD5E704931B4B20481A6B42F088
:102C400010021A631B6B03F010030493049BC8E784
:102C50000593154B1A481A6B42F020021A631B6B3E
:102C600003F020030593059BBBE706930E4B154825
:102C70001A6B42F040021A631B6B03F04003069389
:102C8000069BAEE70793084B0F481A6B42F0800291
:102C90001A631B6B03F080030793079BA1E70B48A4
:102CA000FEF764FC00209CE7003802400000024070
:102CB0000004024000080240000C024000100240E4
:102CC0000014024000180240001C0240D8640008B2
:102CD00010B50021044604F00F0400F057F901205C
:102CE000A04010BD70B504464B1C0E46218216D084
:102CF000C1F30310FFF75EFF05463046FFF7E8FF1C
:102D0000238A074A656103F00F03206052F82330DD
:102D1000A36105F1100318356360A560E56070BD1F
:102D2000FC640008B0F9100000F0B4B910B5836974
:102D3000446971B9216893FAA3F2B2FA82F20320CE
:102D4000520000FA02F221EA020293FAA3F322608F
:102D500010BD226893FAA3F1B1FA81F193FAA3F3BB
:102D60000320490000FA01F1B3FA83F322EA0102D9
:102D70005B00012101FA03F31343236010BD08B582
:102D8000FFF700FF0121002001F0EAFCBDE8084048
:102D9000FFF704BF43692DE9F0413A4C0D46D907CE
:102DA00020602CD58168DFF8E8E08268364F8368C0
:102DB000364E01EA0E01714502EA070204BF4FF0E8
:102DC000010EC0F808E0BA4203EA060304BF4FF45C
:102DD00080778760B34204BF4FF4803686602C480A
:102DE000814205D028498A4202D0284A934206D11E
:102DF000284B294A1B6852F825000121984723686F
:102E0000DA685B69920708D09F0706D5214B224AF2
:102E10001B6852F8250000219847236899695A6970
:102E20005B698E070AD5900508D5190406D5194B9C
:102E3000194A1B6852F825000521984722689769AE
:102E40005669526917F0040706F4806609D046B146
:102E5000120406D50F4B104A1B6852F825000721B3
:102E6000984723685B695FB156B11B0408D5094BCD
:102E7000094A1B6852F825000221BDE8F0411847B5
:102E8000BDE8F081081300200003000800000310D3
:102E900003000004501300204813002000210148C3
:102EA000FFF778BF00640040FFF7F8BFFFF7F6BFF9
:102EB00001210148FFF76EBF00680040FFF7F8BF2F
:102EC000FFF7F6BF054B186830B901221A60044BB2
:102ED000044A1A60FFF7F6BD704700BF5413002084
:102EE00058210020000C004008B5044B1B680BB9AA
:102EF000FFF7E8FF024B586A08BD00BF54130020DB
:102F0000000C0040044B054A13605863DA6842F035
:102F10000202DA60704700BF000C00405821002018
:102F2000034B044A1360DA6822F00202DA60704749
:102F3000000C004058210020034A044B13606FF03E
:102F400002021A61704700BF58210020000C0040A7
:102F500030B5C36891FAA1F4B4FA84F491FAA1F1FE
:102F60000325B1FA81F1640005FA04F4490023EA6B
:102F7000040302FA01F11943C16030BD012A02D0F5
:102F8000022A18BF0022FFF7E3BF00002DE9F0413D
:102F90003F4B00F00F08C0F3031053F828400E46D3
:102FA00001F00705FFF706FE836894FAA4F1B1FA71
:102FB00081F194FAA4F20327490007FA01F1B2FA69
:102FC00082F223EA01035200022101FA02F21343C2
:102FD0008D42836028D0BD4241D0012D3FD00023D7
:102FE000026894FAA4F7B7FA87F794FAA4F14FF0BD
:102FF000030EB1FA81F17F000EFA07F7490022EAC9
:1030000007028B40013D1343012D036005D843683F
:1030100032074CBF2343A3434360C6F3011221464A
:10302000BDE8F041FFF7AABFB8F1070FC6F30327C9
:1030300017D9426A230A93FAA3F1B1FA81F193FAFC
:10304000A3F34FF00F0EB3FA83F389000EFA01F1E8
:103050009B0022EA010207FA03F3134343622B4663
:10306000BEE7026A94FAA4F3B3FA83F394FAA4F1E4
:103070004FF00F0EB1FA81F19B000EFA03F38900B5
:1030800022EA030207FA01F313430362E7E700BFF2
:10309000FC64000838B500F00F02194BC0F30310B0
:1030A00053F822400D46FFF785FD04FB04F201684A
:1030B00002EB42030B40B3FBF2F3013B012B05D8BB
:1030C000EB1E022B436809D823434360032D08D12C
:1030D00001222146BDE83840FFF750BF23EA040330
:1030E0004360012DF4D0052D01D0022D01D1022223
:1030F000EFE721460022BDE83840FFF729BF00BFB7
:10310000FC6400084309012200F01F0002FA00F0ED
:103110002033044A42F82300BFF34F8FBFF36F8F71
:10312000704700BF00E100E042681649920110B507
:103130008B1804688C5082685A60C2689A60026971
:10314000DA6042691A61026A9A610022DA61DA84FD
:103150009A84DA859A85B0F91A2001320AD10822B8
:103160005A61184601F027FA58B10748BDE81040E7
:10317000FEF7FCB9B0F9182001320CBF04220C2272
:10318000EEE710BD801300203C650008F7B5194E2E
:10319000074656F8200000282AD0174CBD01635975
:1031A0001A6852060AD5DB68590607D5134B012168
:1031B0001B68984763596FF040021A6063591A6898
:1031C00092060CD5DB68980609D50C4B56F82700FB
:1031D0001B680021984763596FF020021A606359F9
:1031E0001A68110704D55A69D20744BF5B68019376
:1031F00003B0F0BD5C1300208013002058130020A2
:103200000020FFF7C3BF0120FFF7C0BF0220FFF778
:10321000BDBF0320FFF7BABF0420FFF7B7BF0520EB
:10322000FFF7B4BFF0B50E4687B004466D4930468F
:103230001546FEF745F96C4907462846FEF740F962
:1032400001463846FEF71EF9684B2060984200F0B0
:103250009C8036D8A3F50063984269D003F580635B
:1032600098427CD05F493046FEF7EEF85E4928462A
:10327000FEF7EAF8721C03D001213046FFF70AFF7F
:103280006B1C03D001212846FFF704FF4FF41653AF
:10329000A3600023E3602361636123622683658367
:1032A0002046FFF741FF2268514B9A4207D1514B0C
:1032B000514801221A6021464C2202F001FA07B05F
:1032C000F0BD4E4B98421DD003F58063984272D0FA
:1032D000A3F544439842C5D1494B1A6A42F480127F
:1032E0001A621A6A22F480121A62002204921A6C7C
:1032F00042F480121A641B6C03F480130493049B41
:1033000004232AE03E4B5A6A42F010025A625A6A7B
:10331000002122F010025A6200915A6C42F0100211
:103320005A645B6C616003F010030093009B99E7A3
:10333000334B1A6A42F400321A621A6A22F40032DB
:103340001A62002201921A6C42F400321A641B6C59
:1033500003F400330193019B0123636082E7284B50
:103360001A6A42F480221A621A6A22F480221A62CD
:10337000002202921A6C42F480221A641B6C03F43D
:1033800080230293029B0223E7E71D4B1A6A42F453
:1033900000221A621A6A22F400221A6200220392A0
:1033A0001A6C42F400221A641B6C03F4002303938A
:1033B000039B0323D1E7124B5A6A42F020025A6260
:1033C0005A6A22F020025A62002205925A6C42F098
:1033D00020025A645B6C03F020030593059B0523D0
:1033E000BBE700BFC065000854650008004C004002
:1033F000004400407C130020942100200010014074
:10340000003802408160FFF78FBE0000034B196057
:103410004168034B43F82120704700BF5813002038
:103420005C13002038B543680D46052B2BD8DFE828
:1034300003F0031B1E2124272149252421489B0139
:103440003AB3C258D3680DBB43F02003D360204683
:1034500000F0C2F96209012304F0170403FA04F42E
:10346000194B43F8224038BD18492624E6E718498D
:103470002724E3E717493424E0E717493524DDE73B
:1034800016494724DAE700210C46D7E743F040030A
:10349000DCE7C358DA6835B922F02002DA60DB686D
:1034A0001A0606D538BD22F04002DA60DB689B06BA
:1034B00004D42046BDE83840FFF724BE38BD00BF25
:1034C000013200088013002000E100E0073200080C
:1034D0000D32000813320008193200081F320008AC
:1034E0004368034A9B01D3581868C0F340107047E3
:1034F00080130020416810B504462046FFF7F0FF16
:103500000028FAD08901034B5B585868C0F30800C3
:1035100010BD00BF801300204368034A9B01D358AD
:103520001868C0F3C01070478013002038B5446895
:1035300005462846FFF7F0FF0028FAD0A401034B08
:103540001B59C1F30801596038BD00BF801300202A
:1035500008B500F005F8BDE8084001F0AFBA00007A
:10356000174A1849936803F00C03042B10B50DD0CB
:10357000082B0DD0144B0B60114B144A9B68C3F3FE
:103580000313D25C0B68D3400B6010BD104BF2E705
:103590005468506852686302C2F3881200F03F001A
:1035A0004CBF0B4B084BB3FBF0F35343044A526838
:1035B000C2F3014201325200B3FBF2F3DBE700BF7A
:1035C00000380240E00100200024F4002C660008CE
:1035D00000127A002DE9F041ACB0304B002101918E
:1035E0001A6C42F080521A641B6C03F080530193F2
:1035F000019B2B4B02911A6842F440421A601B68EF
:1036000003F440430293029B012308930746C0B989
:1036100009934FF4B47302244FF4800508261193E4
:1036200008A807230E940F951096129413931494E0
:1036300000F0E2FB18B901F0F5F9804618B100205E
:1036400028E00523E4E74FF4C0731C934FF4807324
:10365000159315A84FF000632A931B961D9600F052
:10366000DBF80F2303934FF4A053069305214FF487
:10367000805303A80494CDF81480079301F0CCF88C
:1036800002460028DBD10FB94FF08062294601F0D5
:1036900077F801202CB0BDE8F08100BF003802406F
:1036A00000700040F0B595B00024234B00941A6CD4
:1036B00042F080521A641B6C03F080530093009B0D
:1036C0001E4B01941A6842F440421A601B68089429
:1036D00003F440430193019B0E94032307931023AB
:1036E0000B930F934FF4B473022610930127062314
:1036F00007A80A970D961196129300F07DFB0546D8
:10370000B8B90F2302934FF4A053049005930521F9
:103710004FF4805302A80396069301F07DF8024609
:1037200028B9014601F02CF8384615B0F0BD2846FE
:10373000FBE72046F9E700BF003802400070004078
:1037400008B50120FFF746FF18B9FFF7ABFF00B936
:10375000FEE74FF0C06200210120BDE8084001F003
:103760000FB80000174AD2F8883010B543F4700340
:10377000154CC2F888302368002143F00103236010
:10378000A160236823F0847323F4803323600F4BFC
:103790006360236823F4802323604FF00063E160BB
:1037A00093600B4B0B4A1A6001F088F9FFF7C8FFD2
:1037B000236A43F008032362236A23F00803236289
:1037C00010BD00BF00ED00E00038024010300024C2
:1037D000E001002080A8120130B50C4CA268A4685A
:1037E000B4F1006F13460CD1131F094C094A53F86A
:1037F000045F42F8045FA242F9D1044A4FF000533B
:103800009360103043F8201030BD00BF00ED00E0A1
:10381000C0010020FCFFFF1F2DE9F04F036813F0EB
:10382000010685B004460BD0C849866BD1F88C20C0
:1038300022F0C0623243B6FA86F6C1F88C207609CF
:1038400099070BD5C148E16BD0F88C2022F0C0520B
:103850000A430029C0F88C2008BF012613F0040594
:1038600012D0BA49256BD1F88C20B5F5801F22F40F
:10387000401242EA050218BFB5FA85F5C1F88C205E
:1038800012BF6D09002501261A070FD5AF48616BDD
:10389000D0F88C2022F440020A43B1F5800FC0F822
:1038A0008C2000F0BF81002908BF01259F0633D579
:1038B00000230393A54BA64F1A6C42F080521A6462
:1038C0001B6C03F080530393039B3B6843F48073AA
:1038D0003B6001F013F980463B68D80540F1A481B4
:1038E0009A4F3B6F13F4407340F0A981236C03F4AB
:1038F0004072B2F5407F954A40F0C481916823F050
:10390000704021F4F81120F4407001439160116F70
:10391000C3F30B030B4313672368DB0642BF8D4BD6
:1039200094F858201A6023681F0608D58749E06C70
:10393000D1F8942022F440020243C1F894205806A2
:1039400008D58249A06CD1F8942022F0806202430D
:10395000C1F89420D9050CD57C48616DD0F894202D
:1039600022F000620A43B1F1006FC0F8942008BF52
:1039700001259A0508D57549606CD1F8942022F08C
:1039800080520243C1F894205F0500F17F81012E2F
:1039900040F08A81704E6D4F0023336001F0AEF825
:1039A000019680463B68180100F10B822068C10730
:1039B00001D5A36B23B1820746D5E36B002B43D11E
:1039C000624F4FF44031D7F8842091FAA1FE4FF0B6
:1039D000706CBEFA8EFED7F884309CFAACF847F6CD
:1039E000C07BB8FA88F89BFAABFBBBFA8BFB91FA69
:1039F000A1F1B1FA81F19CFAACFC4FF0E04ABCFABB
:103A00008CFC9AFAAAFAA66802F4403206FA0BF97C
:103A10006669BAFA8AFA22FA0EF206FA0AFA03F08C
:103A200070636668013249EA0A0923FA08F322F052
:103A3000004249EA060903FA0CF3013A49EA030392
:103A40008A401343C7F88430430703D5236BB3F58B
:103A5000801F05D0070750D5636BB3F5800F4CD19D
:103A60003A4F4FF44031D7F8842091FAA1FE4FF03D
:103A7000E04CBEFA8EFED7F884309CFAACF847F6DC
:103A8000C07BB8FA88F89BFAABFBBBFA8BFB91FAC8
:103A9000A1F14FF0706AB1FA81F19AFAAAFABAFA72
:103AA0008AFA9CFAACFCA66802F4403206FA0BF9DA
:103AB000266922FA0EF206FA0AFA03F0E043666873
:103AC0000132BCFA8CFC49EA0A0923FA08F322F015
:103AD000004249EA060903FA0CF3013A8A4049EA2E
:103AE00003031343C7F88430D7F88C20A36A22F06D
:103AF0001F02013B1343C7F88C30460553D5236D95
:103B0000B3F1005F4FD1DFF844C04FF4403BDCF825
:103B100084209BFAABF84FF0E047B8FA88F8DCF85D
:103B2000841097FAA7F947F6C07AB9FA89F99AFA90
:103B3000AAFABAFA8AFA9BFAABFB4FF0706EBBFA9C
:103B40008BFB9EFAAEFEBEFA8EFE07E00038024006
:103B500000700040E01147426800474297FAA7F71B
:103B6000E368A6685B08013B02F4403206FA0AFAF1
:103B700003FA0BF3666801F0E04122FA08F8B7FA9D
:103B800087F743EA0A0321FA09F908F101083343E8
:103B900009FA07F74FEA48081F4308FA0EFE47EAFA
:103BA0000E07CCF8847001052CD547F6C07797FA3C
:103BB000A7F74FF44033B7FA87F793FAA3F34FF020
:103BC0007060B3FA83F290FAA0F04FF0E041B0FADF
:103BD00080F091FAA1F1E3685B08013B9340A26891
:103BE00002FA07F762683B431343226902FA00F0C6
:103BF0006269B1FA81F102FA01F103437B4A0B4396
:103C0000C2F88430019A794E0123136000F076FFE8
:103C1000074633681A014BD400F070FFC01B02281E
:103C2000F7D908E0012641E600F068FFA0EB0800A4
:103C300002287FF651AE032005B0BDE8F08F226C5C
:103C400002F4407293423FF451AE3B6F684A012147
:103C5000116023F44073002111603B673B6FD9076B
:103C60007FF544AE00F04AFF41F2883980463B6F51
:103C70009A073FF53BAE00F041FFA0EB0800484536
:103C8000F5D9D8E7916821F4F8113FE65748216D3E
:103C9000D0F8942022F000520A43B1F1005FC0F83E
:103CA00094207FF474AE75E6B3F5006F3FF472AE06
:103CB000012D40F084804F4D4C4E00232B6000F0CE
:103CC0001DFF074633689B0000F18380206846078C
:103CD00001D5236B1BB1010738D5636BB3BB4349D7
:103CE0004FF44036D1F8883096FAA6FE47F6C072F7
:103CF000BEFA8EFE92FAA2F2B2FA82F796FAA6F60F
:103D00004FF0706CB6FA86F69CFAACFCE26903F4EC
:103D10004033BA40676ABCFA8CFC23FA0EF307FA08
:103D20000CF701333A4323F00043A769013B3A43C0
:103D3000B3401343C1F88830D1F88C30E26A23F4E1
:103D4000F853013A43EA0223C1F88C30C2052DD55D
:103D5000636DB3F1006F29D124494FF07060D1F841
:103D6000882090FAA0F647F6C07EB6FA86F69EFA4C
:103D7000AEFE4FF44033BEFA8EFE93FAA3F3B3FACD
:103D800083F790FAA0F0236A5B08013BBB40E76928
:103D9000A46907FA0EF702F07062B0FA80F03B43B4
:103DA000F240234382401343C1F8883001232B6043
:103DB00000F0A4FE0D4C054623689B0010D50020A2
:103DC0003AE700F09BFEA0EB080002287FF6EAAD80
:103DD00031E700F093FEC01B02287FF673AF2AE79D
:103DE00000F08CFE401B0228E6D924E70038024090
:103DF000400E4742700047420368F7B5DF070446AC
:103E000038D423689E077AD423681E0700F1CF8038
:103E100023685D0728D500230193AF4BAF4D1A6C83
:103E200042F080521A641B6C03F080530193019B93
:103E30002B6843F480732B6000F060FE06462B680D
:103E4000DA0540F1D680A64B227A1A70A368002BBF
:103E500000F0DD8000F052FE9F4D064641F28837AB
:103E60002B6F9B0740F1CC80A269002A40F0DF80D5
:103E700000201EE0984B9A6802F00C02042A10D031
:103E80009A6802F00C02082A02D15B685D0208D42D
:103E9000914A936803F00C030C2B0CD15368580221
:103EA00009D58D4B1B689903ABD56368002BA8D14E
:103EB000012003B0F0BD8B4B22791A7063687BB18F
:103EC00000F01CFE844D064641F288372B689A03A9
:103ED00097D400F013FE801BB842F7D90320E8E71F
:103EE00000F00CFE7C4D064641F288372B689B03A0
:103EF00087D500F003FE801BB842F7D9EEE7764B7A
:103F00009A6812F00C0F10D09A6802F00C02082A7E
:103F100002D15B68580208D56F4A936803F00C031E
:103F20000C2B16D15368590213D46B4B1A689207A5
:103F300002D5E268012ABBD11868F82292FAA2F2EF
:103F4000B2FA82F122698A4020F0F8010A431A602D
:103F50005AE7E268644BDAB101221A6000F0CEFD44
:103F60005D4D06462B689B070CD52968F82393FA0C
:103F7000A3F3B3FA83F22369934021F0F8021343C9
:103F80002B6041E700F0BAFD801B0228EAD9A5E7C3
:103F90001A6000F0B3FD504D06462B689F077FF571
:103FA00033AF00F0ABFD801B0228F6D996E76269BB
:103FB0004E4B7AB101221A6000F0A0FD464D064634
:103FC0006B6F98073FF524AF00F098FD801B022827
:103FD000F6D983E71A6000F091FD3F4D06466B6FFE
:103FE00099077FF515AF00F089FD801B0228F6D9EF
:103FF00074E700F083FD801B02287FF620AF6DE799
:1040000000F07CFD801BB8427FF62AAF66E700F027
:1040100075FD314D064641F288372B6F98077FF5C5
:1040200023AF00F06BFD801BB842F6D956E72A4D4E
:10403000AB6803F00C03082B3FF43AAF2C4E00237F
:10404000022A336056D100F059FD07462B689901CA
:104050003CD447F6C07E9EFAAEFE4FF44032BEFA24
:104060008EFE92FAA2F24FF07060B2FA82F790FAE6
:10407000A0F04FF0E041B0FA80F091FAA1F1226A8D
:10408000E3691343626A02FA0EF21343A26A52080A
:10409000013ABA401343E26A02FA00F0226B0E4C76
:1040A000B1FA81F1034302FA01F10B436B60012382
:1040B000336000F023FD054623689A013FF5D8AE32
:1040C00000F01CFD401B0228F6D907E700F016FDA2
:1040D000C01B0228BAD901E7003802400070004036
:1040E000703802400238024000004742800E4742CA
:1040F0006000474200F002FD04462B689B017FF5FB
:10410000B7AE00F0FBFC001B0228F6D9E6E600BFC4
:104110002B4B9A6802F00C02082A07D00C2A2CD0EC
:10412000284B2948042A18BF184670475A6859680E
:104130005B6811F4800F02F03F0247F6C07191FAFC
:10414000A1F0B0FA80F003EA010323FA00F314BFF0
:104150001D481C48B0FBF2F05843194B4FF4403255
:104160005B6892FAA2F2B2FA82F203F44033D340CF
:1041700001335B00B0FBF3F070475A6859685B6825
:1041800011F4800F02F03F0247F6C07191FAA1F0DE
:10419000B0FA80F003EA010323FA00F314BF0A48DF
:1041A0000848B0FBF2F05843054B4FF0E0425B6823
:1041B00092FAA2F2B2FA82F203F0E043D340D9E7D6
:1041C000003802400024F40000127A002DE9F04F7C
:1041D00085B00B68DFF8A081654ADFF8A0910193F4
:1041E00000234FF0010E019C0EFA03FE0EEA0406B6
:1041F000B64540F0AA804C6824F01007022F16D173
:104200004FEAD30A00EB8A0A03F0070BDAF82050D2
:104210004FEA8B0B4FF00F0C0CFA0BFC25EA0C0C41
:104220000D6905FA0BF545EA0C05CAF820504FEA6E
:10423000430A0325D0F800B005FA0AF5ED4304F06F
:10424000030C0BEA050B0CFA0AFC013F4CEA0B0CC1
:10425000012FC0F800C011D8876807EA050BCF68A6
:1042600007FA0AFC4CEA0B078760476827EA0E0E3C
:10427000C4F300179F4047EA0E074760C7683D40F8
:104280008F6807FA0AF73D43C560E5005DD54FF03A
:10429000000BCDF80CB0D8F84470364D47F4804789
:1042A000C8F84470D8F8447007F480470397039F18
:1042B00023F0030707F1804707F59C3703F0030C51
:1042C000D7F808A04FEA8C0C4FF00F0E0EFA0CFE38
:1042D000A8422AEA0E0E3FD005F58065A8423DD0DF
:1042E00005F58065A8423BD005F58065A84239D028
:1042F00005F58065A84237D0484537D005F50065FB
:10430000A84214BF0825062505FA0CF545EA0E0556
:10431000BD601568F74314F4803F0CBF3D40354342
:104320001560556814F4003F0CBF3D40354355609F
:10433000956814F4801F0CBF3D4035439560D568E7
:10434000A40254BF3D403543D5600133102B7FF4A8
:1043500048AF05B0BDE8F08F5D46D5E70125D3E74E
:104360000225D1E70325CFE70425CDE70525CBE7D7
:10437000003C0140000002400038024000140240AE
:104380002DE9F0470668C2683369C16923F44053D8
:1043900013433361044683680069F268034360692C
:1043A00022F41642034322F00C020B431343F36042
:1043B0007369A26923F440731343B1F5004F73612D
:1043C0007A4B7CD19E4203D003F580639E4244D158
:1043D00000F0F0FA192505FB00F360684FF064095E
:1043E0004000B3FBF0F3B3FBF9F34FEA031800F01E
:1043F000E1FA636868435B00B0FBF3F700F0DAFAB8
:10440000636868435B00B0FBF3F3B3FBF9F309FBAC
:104410001373DB003233B3FBF9F35B0003F4F8777B
:1044200000F0C8FA626868435200B0FBF2FA00F08C
:10443000C1FA636868435B00B0FBF3F3B3FBF9F3C5
:1044400009FB13A3DB003233B3FBF9F303F00703DB
:1044500043443B44B360BDE8F08700F093FA19256C
:1044600005FB00F360684FF064094000B3FBF0F314
:10447000B3FBF9F34FEA031800F084FA636868436A
:104480005B00B0FBF3F700F07DFA636868435B0004
:10449000B0FBF3F3B3FBF9F309FB1373DB00323327
:1044A000B3FBF9F35B0003F4F87700F06BFA626892
:1044B00068435200B0FBF2FA00F064FAB9E79E429A
:1044C00002D03B4B9E4240D100F074FA6768192538
:1044D0004FF0640905FB00F3BF00B3FBF7F3B3FB38
:1044E000F9F31F0100F066FA636868439B00B0FBB4
:1044F000F3F800F05FFA636868439B00B0FBF3F3E6
:10450000B3FBF9F309FB13831B013233B3FBF9F35C
:1045100003F0F00800F04EFA626868439200B0FBC6
:10452000F2FA00F047FA636868439B00B0FBF3F3CC
:10453000B3FBF9F309FB13A31B013233B3FBF9F30C
:1045400003F00F0343EA080383E700F01BFA6768F0
:1045500019254FF0640905FB00F3BF00B3FBF7F327
:10456000B3FBF9F31F0100F00DFA636868439B0089
:10457000B0FBF3F800F006FA636868439B00B0FBF9
:10458000F3F3B3FBF9F309FB13831B013233B3FBE2
:10459000F9F303F0F00800F0F5F96268684392005F
:1045A000B0FBF2FA00F0EEF9BDE700BF00100140E9
:1045B00000140140704710B5044640B390F83930FC
:1045C00003F0FF021BB980F83820FFF7F3FF2268E1
:1045D000242384F83930D36823F40053D360204671
:1045E000FFF7CEFE23681A6922F490421A615A69D5
:1045F00022F02A025A61DA6842F40052DA6000209E
:104600002023E06384F8393084F83A3010BD01206B
:1046100010BD70472E4A0368904212D0B0F1804F0F
:104620000FD0A2F57C4290420BD002F580629042FE
:1046300007D002F58062904203D002F578429042A2
:104640001DD14A6823F070031343214A904204D1DC
:10465000CA6823F44073134328E0B0F1804FF7D0C9
:104660001C4A9042F4D002F580629042F0D002F5EC
:1046700080629042ECD002F578429042E8D0164A2F
:104680009042E5D002F580629042E1D002F580626E
:104690009042DDD0A2F598329042D9D002F58062E6
:1046A0009042D5D002F580629042D1D003608B68F1
:1046B000C3620B688362064B984206D003F58063A1
:1046C000984202D00123436170470B690363F9E705
:1046D00000000140000400400040014010B50446C5
:1046E000A0B190F8393003F0FF021BB980F83820F0
:1046F000FFF78FFF022384F839302068211DFFF770
:1047000089FF012384F83930002010BD012010BD3D
:10471000036A10B501248C4023EA04030362036A90
:104720008A401A43026210BD10B504460122006897
:10473000FFF7EEFF2368084A934203D002F5806238
:10474000934203D15A6C42F400425A641A6842F010
:1047500001021A60002010BD00000140FFF7E4BF15
:10476000064A1369012923F00403136101D130BF04
:10477000704740BF20BF20BF704700BF00ED00E082
:1047800070B50D4688B01646204CF0B90190236BE9
:1047900043F001032363236B059003F001030193AE
:1047A000019B07904FF4807303930223049303A9A2
:1047B000032317480693FFF709FDA16821F0EC6178
:1047C00031432943A16008B070BD00230293226BDE
:1047D000104842F004022263226B059302F00402A7
:1047E0000292029A07934FF40072039202220492FB
:1047F00003A903220692FFF7E9FCA36845EAC60174
:1048000023F078450D43A560DDE700BF0038024086
:104810000000024000080240564B1A6802F00F02E6
:104820008A422DE9F04105460E4630D32A689407A6
:1048300037D4D0073DD44F4B1A6802F00F0296428E
:10484000C0F088802A68510700F18C80130707D5D3
:10485000494A2969936823F4604343EAC10393609A
:10486000FFF756FC444BF0229B6892FAA2F2B2FA90
:1048700082F203F0F003D340404AD35CD840404B6F
:1048800018600F20FEF71EF90020BDE8F081CAB2C3
:104890001A701B6803F00F039942C7D00120BDE8CE
:1048A000F0813549A8688B6823F0F00303438B60DF
:1048B000BFE76A68304B012A1ED11B6813F4003F22
:1048C000ECD02D4CA36823F003031343A36000F046
:1048D00015F96B68012B074641F2883816D1A36899
:1048E00003F00C03042BA6D000F008F9C01B4045D0
:1048F000F5D90320BDE8F081911E01291B6802D87B
:1049000013F0007FDCE713F0020FD9E7022B0AD186
:10491000A36803F00C03082B8DD000F0EFF8C01B48
:104920004045F5D9E5E7032B0FD1A36803F00C034D
:104930000C2B80D000F0E2F8C01B4045F5D9D8E739
:1049400000F0DCF8C01B4045D3D8A36813F00C0F6F
:10495000F6D170E7F2B21A701B6803F00F039E42A3
:104960009CD16FE70449E8688B6823F4E053034364
:104970008B606BE7003C0240003802403C66000858
:10498000E0010020084B4FF4E0529B6892FAA2F23B
:10499000B2FA82F203F4E053D340044AD35C044AEF
:1049A0001068D840704700BF003802403C660008DD
:1049B000E0010020084B4FF460429B6892FAA2F29B
:1049C000B2FA82F203F46043D340044AD35C044A4F
:1049D0001068D840704700BF003802403C660008AD
:1049E000E00100200F2303600B4B9A6802F00302E2
:1049F00042609A6802F0F00282609A6802F4E05223
:104A0000C2609B68DB0803F4E0530361034B1B683F
:104A100003F00F030B60704700380240003C024077
:104A20007047000037B500230193224B1A6C42F007
:104A300080521A641B6C03F080530193019B4FF466
:104A4000803393FAA3F3B3FA83F303F1845303F5AA
:104A500060339B0001221A6000F050F8164C0546A6
:104A60006368DA0315D54FF4003393FAA3F3B3FA6E
:104A700083F303F1845303F560339B0001221A6032
:104A800000F03CF80C4C054663689B030AD50020F7
:104A900006E000F033F8401BB0F57A7FE0D9032040
:104AA00003B030BD00F02AF8401BB0F57A7FEBD997
:104AB000F5E700BF003802400070004008B50A4B1F
:104AC0001A6842F400721A601A6842F480621A602E
:104AD0001A6842F480721A600F20FDF7F3FFFFF7A7
:104AE0009FFF002008BD00BF003C0240024A13683F
:104AF00001331360704700BFE0210020014B1868AC
:104B0000704700BFE021002070477047704700EBFE
:104B1000011202F19800D2F8A4301B68184710B4B3
:104B200080B1146853680CB9DA070BD513F0010F84
:104B30004FEA63031CBFC2581459184423465DF85A
:104B4000044B18475DF8044B70470368184708B1D9
:104B50000B6803607047704770B50546044655F80A
:104B60004C3B0E461B68984728463146FEF74AFCE8
:104B70002368C4F8B86020465B68BDE870401847F9
:104B8000884238B504460D460AD0FCF742FA3CB1DB
:104B9000EB681BB15B68294620469847EB68E360E9
:104BA000204638BD2DE9F04387B000259146009599
:104BB00002460195044688461F469DE80300274BA0
:104BC00042F8083B264B82E80300236148F20703C2
:104BD0006361244BE561A46122626362BFF36F8F5E
:104BE000BFF34F8F04F14C064C226563656484F873
:104BF000485084F84950304600F087FD02A9C4F8B7
:104C0000A450C4F8B450C4F8B870174D174F0297A9
:104C100004F198000595FFF7B3FF02A8FCF7F9F936
:104C200002A904F1A80002970595FFF7A9FF02A8C1
:104C3000FCF7EFF94A4641463046FEF7F3FAD4F85E
:104C4000B8103046FEF7DEFB304622460849FEF734
:104C5000DDFB204607B0BDE8F08300BF60660008BA
:104C600001A090E81F4B00084C660008094B0008A3
:104C70000F4B00082DE9FF410546884655F84C3B8F
:104C80001B68044616469847FCF746FCD8F80C709B
:104C9000300197B1983041462044FFF771FF01225F
:104CA00031462846FEF7BEFBFCF74CFC2368204645
:104CB0005B68984704B0BDE8F081074B00939830DB
:104CC000064B039369462044FFF75AFF6846FCF7FA
:104CD000A0F93A46E4E700BF094B00084C6600081B
:104CE0007047000010B50446FFF75CFF014B2360DE
:104CF000204610BD7866000810B5034B03600446DB
:104D0000FCF7CAF9204610BD7866000810B50446C5
:104D1000FFF7F2FF204600F0C3F9204610BD10B5A2
:104D20000446FCF7F9FB23682BB9E068FCF789FB24
:104D3000012360602360BDE81040FCF703BC38B578
:104D40000546FCF7E9FB2C6824B1E868FCF779FB21
:104D50006C68041BFCF7F6FB204638BD38B50546E9
:104D6000FCF7DAFB2846AC68FFF7E9FF0444FCF7E0
:104D7000E9FB204638BD08B5FFF7F0FF4FF47A7322
:104D800090FBF3F008BD10B50446FCF7C5FBE068E6
:104D9000FCF757FB00236060A360BDE81040FCF700
:104DA000D1BB002310B50360436083600446FCF769
:104DB0001BFBE0602046FFF7E6FF204610BD38B53C
:104DC000044648B15830A04206D0A0F12C05143852
:104DD000FCF759F92846F6E7204638BD70B50E4C69
:104DE0002046002528263246294640F8045B00F07C
:104DF0008CFC3246294604F13000E56200F085FC67
:104E0000A5652046E565054A84F860500449BDE87B
:104E1000704000F027B900BF80150020C4010020B9
:104E2000BF4D000800F0C8BC00F024BD00F076BC07
:104E300070B50546FEF758F84FF47A7495FBF4F414
:104E4000002C064602DDFCF761FB28B9FEF74CF8A2
:104E5000801BA842FAD370BD204600F02BF9F5E77D
:104E60004FF47A735843FFF7E3BF000008B5084BCF
:104E70001B685BB9022107480322FEF7D3F94FF400
:104E800016510448BDE80840FEF7BCBA08BD00BF93
:104E90007C13002094210020022810B5044601DC78
:104EA000002010BD00F0F0F909230360033C094B1A
:104EB00053F82400002243F8242040B103681B6902
:104EC0009847041EECDA00F0DFF9644204604FF00A
:104ED000FF3010BDE4150020F8B505460E46144617
:104EE00000F0D2F90923022D03600FDC124B1B687E
:104EF0000BB9FFF7BBFF35463719104EBD4215D031
:104F000015F8011B3046FEF711FBF7E7033D0C4B8C
:104F100053F8250060B103682246DB6831469847A4
:104F2000041E03DA00F0B0F9634203602046F8BDC6
:104F30004FF0FF34FAE700BF7C13002094210020DB
:104F4000E415002070B504460D46164600F09CF9A5
:104F50000923022C03600BDC0F4B1B680BB9FFF716
:104F600085FF0E48FEF7C6FA01242870204670BD62
:104F7000033C0B4B53F8240058B1036832469B683E
:104F800029469847041EF1DA00F07EF96342036077
:104F9000ECE74FF0FF34E9E77C1300209421002078
:104FA000E415002070B504460D46164600F06CF975
:104FB0000923022C03600BDD033C084B53F824004B
:104FC00040B1036832462946DB69BDE870401847A6
:104FD000002070BD4FF0FF3070BD00BFE415002011
:104FE00008B5FEF7B5FAFCF721FC08BD704708B517
:104FF000FFF7FCFFBDE80840FBF790BD0C4A1368C3
:1050000010B51844EFF30881884205D3094B0C22F0
:105010001A604FF0FF3010BD07490C6824B10749F2
:10502000096821448842F1D21060184610BD00BFC3
:10503000E4010020E4210020E4160020E81600200E
:10504000074C08B523680546986800F0D5F9236831
:10505000D86800F0D1F90DB1FCF742FAFEE700BFC5
:10506000E80100200120704708B5FFF7E9FF08B507
:10507000FCF7EAFB08BD08B5FCF7EEFB08BD000035
:1050800010B500F0B9FA044610B90248FCF76EFA00
:10509000204610BD8866000808B100F0B5BA704718
:1050A000FFF7FABF024B1B6803B11847704700BFF8
:1050B000EC160020FCF7A6BF80F309887047EFF3D9
:1050C00009807047684680F309885A480078C0070D
:1050D00014BF0220032080F314887047DFF858C102
:1050E000EFF305831B0618BF6047EFF31483DB075C
:1050F00008BF604700DF7047DFF840C1EFF305836A
:105100001B0618BF6047EFF31483DB0708BF604737
:1051100000DF7047EFF30980816911F8021CE1BBE1
:1051200090E80F1010B5E047BDE81040EFF3098C90
:105130008CE80700424B93E80600914208BF704795
:1051400041B91EF0100F16D13E49086820F0010049
:10515000086010E01EF0100F06BF2CED108A012031
:10516000002081F825002CE9F00FC1F82CC00CB408
:10517000FCF75EFC0CBC1A60D2F82CC0BCE8F00F47
:1051800092F8250000280EBF6FF0020E6FF0120E8D
:10519000BCEC108A8CF30988704710B52A4A126853
:1051A000914209D8294C54F8214090E80F10A047AB
:1051B000EFF3098C8CE80F0010BD10B5FCF7C4FBB1
:1051C000BDE810401E4B93E80600914208BF7047AF
:1051D000EFF3098C1EF0100F06BF2CED108A012092
:1051E000002081F825002CE9F00FC1F82CC00CB488
:1051F000FCF71EFC0CBC1A60D2F82CC0BCE8F00F07
:1052000092F8250000280EBF6FF0020E6FF0120E0C
:10521000BCEC108A8CF30988704710B5FCF7EAFBE8
:10522000FFF7CEBF10B5FCF7E3FBFCF7E3FBFFF79E
:10523000C7BF00009A6400089F1A0008B91A000846
:105240000C21002034EF00E000000000FCFFFFFF15
:10525000DFF820D0002103E0074B5B5843500431B6
:105260000648074B42189A42F6D3FEF77BFAFBF743
:105270007BFE7047000002204C670008C40100203C
:105280005C020020FEE70000014B1868704700BF79
:10529000E80100208A892DE9F041054610070C46F7
:1052A0005AD44B68002B05DC0B6C002B02DC002071
:1052B000BDE8F081E66A002EF9D0002312F4805296
:1052C0002F682B6033D0606DA3895A0705D56368BA
:1052D000C01A636B0BB1236CC01A00230246E66A46
:1052E000216A2846B047431CA38906D129681D2995
:1052F0004BD82B4ACA40D60747D500226260D90452
:105300002269226004D5421C01D12B6803B9606573
:10531000616B2F600029CAD004F14403994202D086
:105320002846FFF783FD00206063BDE8F081216A15
:1053300001232846B047411CC6D12B68002BC3D09F
:105340001D2B01D0162B01D12F60B0E7A38943F0AC
:105350004003A381BDE8F0810F69002FA7D0930718
:105360000E6808BF4B690F6018BF0023A6EB070843
:105370008B60B8F1000F9ADD43463A46216AA66A6F
:105380002846B047002807DCA38943F04003A381E7
:105390004FF0FF30BDE8F0810744A8EB0008E8E7D4
:1053A0000100402038B50B6905460C46DBB118B149
:1053B00083690BB900F072F80C4B9C4209D16C6800
:1053C000B4F90C307BB121462846BDE83840FFF7E0
:1053D00061BF074B9C4201D1AC68F1E7054B9C4291
:1053E00008BFEC68ECE7002038BD00BFC8660008C5
:1053F000E8660008A8660008014620B9044B054984
:10540000186800F0B7B8044B1868FFF7CBBF00BFAF
:1054100008670008A5530008E8010020014900F0D2
:10542000A9B800BFA5530008002310B504460360C7
:105430004360836081814366C2810361436183610C
:10544000194608225C3000F060F9054B6362054B99
:10545000A362054BE362054B2462236310BD00BFCA
:105460001D5C00083F5C0008775C00089B5C00083E
:1054700070B54A1E682555430E4605F17401FFF7C5
:10548000D1FC044640B1002180E842000C30A0600D
:1054900005F1680200F039F9204670BD836910B546
:1054A000044633BB8364C3640365124B124A1B6812
:1054B0008262984204BF0123836100F01FF860609C
:1054C000204600F01BF8A060204600F017F80022EC
:1054D000E06004216068FFF7A7FF01220921A068AE
:1054E000FFF7A2FF02221221E068FFF79DFF0123D0
:1054F000A36110BD086700081D540008F8B51C4BD7
:105500001E68B369074613B93046FFF7C7FF483630
:10551000B4687368013B03D5336833B13668F7E785
:10552000B4F90C506DB16834F4E704213846FFF744
:105530009FFF30600028F1D10C233B6004462046D9
:10554000F8BD4FF6FF73E3810123A38165662560F3
:10555000A560656025616561A5610822294604F1A1
:105560005C0000F0D2F86563A563A564E564E6E736
:10557000086700082DE9F8438046894600F1480491
:10558000002614B93046BDE8F883A5686768013F76
:1055900001D52468F5E7AB89012B07D9B5F90E30A1
:1055A000013303D029464046C84706436835EEE735
:1055B00070B50D4E0D4CA41BA4100025A54209D1B9
:1055C0000B4E0C4C00F036FDA41BA4100025A54288
:1055D00005D170BD56F8253098470135EEE756F8ED
:1055E000253098470135F2E74C0200204C0200209C
:1055F0004C02002054020020024B01461868FFF7BD
:1056000011BC00BFE8010020024B01461868FFF7FB
:105610000DBC00BFE80100200000000000000000F9
:1056200001F0FF01102A2BDB10F0070F08D010F853
:10563000013B013A8B422DD010F0070F42B3F6D157
:10564000F0B441EA012141EA014122F007047FF070
:1056500000070023F0E80256083C85EA010586EAC7
:10566000010685FA47F5A3FA87F586FA47F6A5FA03
:1056700087F68EB9EED1F0BC01F0FF0102F007020F
:1056800032B110F8013B013A83EA010313B1F8D1BA
:105690000020704701387047002D06BF354603389B
:1056A000073815F0010F07D1013015F4807F02BFD4
:1056B000013015F4C03F0130F0BC0138704700BF25
:1056C00010B5431E0A44914200D110BD11F8014BA0
:1056D00003F8014FF7E7884210B501EB020303D846
:1056E000421E99420CD110BD9842F9D28118D21AAB
:1056F000D34200D110BD13F8014D01F8014DF7E779
:1057000011F8014B02F8014FEBE7024403469342C4
:1057100000D1704703F8011BF9E7000038B50546D2
:10572000002945D051F8043C0C1F002BB8BFE418E9
:10573000FFF79DFC1F4A1368104633B9636014607D
:105740002846BDE83840FFF796BCA3420CD9216833
:105750006218934204BF1A685B68636004BF521802
:1057600022600460ECE713465A680AB1A242FAD9F3
:1057700019685818A0420BD1206801445818824279
:105780001960DDD1106852685A6001441960D7E78A
:1057900002D90C232B60D3E7206821188A4204BF6A
:1057A00011685268626004BF091821605C60C7E735
:1057B00038BD00BFF016002070B5CD1C25F00305E4
:1057C00008350C2D38BF0C25002D064601DBA942FB
:1057D00003D90C233360002070BDFFF748FC234A37
:1057E0001468214691B9224C23681BB9304600F059
:1057F00005FA20602946304600F000FA431C26D105
:105800000C2333603046FFF736FCE4E70B685B1B84
:105810001AD40B2B0FD90B60CD50CC183046FFF7A4
:105820002AFC04F10B00231D20F00700C31A1BD033
:105830005A42E25070BD8C420DBF63684B68636092
:10584000136018BF0C46E9E70C464968CAE7C41C58
:1058500024F00304A04205D0211A304600F0CEF90E
:105860000130CDD02560D9E770BD00BFF016002013
:10587000F4160020F8B5074614460E4621B9114625
:10588000BDE8F840FFF7CEBA22B9FFF7CFFA2546B8
:105890002846F8BD00F064FA84420FD92146384604
:1058A000FFF7C0FA05460028F2D031462246FFF73E
:1058B00007FF31463846FFF7B9FAE9E73546E7E72B
:1058C0002DE9F04791461F468A680B69DDF8208074
:1058D0009342B8BF1346C9F8003091F843200646FA
:1058E0000C4612B10133C9F800302368990642BF53
:1058F000D9F800300233C9F80030256815F00605E4
:1059000007D104F1190AE368D9F800209B1A9D42D7
:1059100029DB94F843302268003318BF0123920634
:105920002ED404F1430239463046C047013021D01D
:105930002368E568D9F8002003F00603042B08BFAC
:10594000AD1AA36822690CBF25EAE57500259342CC
:10595000C4BF9B1AED184FF000091A344D451BD1F6
:105960000020BDE8F0870123524639463046C04743
:10597000013003D14FF0FF30BDE8F0870135C2E7B9
:10598000E1185A1C302081F84300224494F8451055
:1059900082F843100233C4E70123224639463046D9
:1059A000C0470130E6D009F10109D7E72DE9F043FE
:1059B00017460A7E85B06E2A984606460C460C9B12
:1059C00001F1430E00F0BC801AD8632A2ED00AD809
:1059D000002A00F0C880582A00F08A8004F14205AD
:1059E00084F842202AE0642A01D0692AF6D121688D
:1059F0001A6811F0800F23D0111D1960136827E079
:105A0000732A00F0B48008D86F2A2AD0702AE5D112
:105A10000A6842F020020A6003E0752A21D0782A41
:105A2000DCD1782284F845206E4964E01A6801F1DF
:105A30004205111D1960136884F842300123A3E068
:105A400011F0400F02F104011960D7D0B2F9003013
:105A5000002B03DA2D225B4284F8432062490A229C
:105A600017E02068196810F0800F03D0081D186037
:105A70000B6806E010F0400F01F104001860F7D049
:105A80000B8859496F2A14BF0A220822002084F883
:105A900043006568A560002DC0F29C80206820F05E
:105AA00004002060002B3FD1002D40F0958075460A
:105AB000082A0BD12368DA0708D5236962689A425D
:105AC000DEBF302305F8013C05F1FF35AEEB0503E1
:105AD0002361CDF800803B4603AA21463046FFF7FC
