:020000040800F2
:1000000000000220CD5F00080160000801600008C8
:1000100001600008016000080160000800000000A5
:10002000000000000000000000000000915E0008D9
:100030000160000800000000375F0008975F0008BB
:10004000016000080160000801600008016000080C
:1000500001600008016000080160000801600008FC
:1000600001600008016000080160000801600008EC
:1000700001600008016000080160000801600008DC
:10008000016000080160000801600008253C0008CC
:10009000293C000801600008193C000801600008C4
:1000A00001600008016000080160000801600008AC
:1000B000016000080160000801600008016000089C
:1000C000016000080160000801600008016000088C
:1000D000016000080160000801600008016000087C
:1000E000016000080160000801600008016000086C
:1000F000016000080160000801600008016000085C
:10010000016000080160000801600008016000084B
:10011000016000080160000801600008016000083B
:10012000016000080160000801600008016000082B
:10013000016000080000000000000000393C0008D9
:100140003D3C0008016000082D3C000801600008EB
:1001500001600008016000080160000801600008FB
:1001600001600008016000080160000801600008EB
:100170000160000801600008016000080000000044
:100180000000000001600008000000000000000006
:10019000016000080000000000000000016000088D
:1001A00000000000000000000000000001600008E6
:1001B000016000080160000801600008016000089B
:1001C0000160000810B5054C237833B9044B13B116
:1001D0000448AFF300800123237010BD60020020AB
:1001E00000000000387800080C4B43B10C480D4962
:1001F00010B5AFF300800C48036823B910BD0A485E
:10020000036833B97047094B002BF7D0BDE81040A5
:100210001847064B002BF5D0184700BF0000000020
:1002200038780008640200205C0200200000000012
:1002300043680B7043681B0A4B70C3888B70C3798B
:10024000CB7083680B7183681B0A4B7143898B7178
:10025000C37ACB71082070470B7843604A7843EA31
:10026000022343608A7843EA02434360CA7843EA40
:10027000026343600B7983604A7943EA0223836017
:100280008A7943EA02438360CA7943EA026383605E
:100290000820704700487047FF7300080048704707
:1002A000DE73000800487047E97200080048704794
:1002B000C872000800487047B572000800487047CF
:1002C00094720008004870470273000800487047A5
:1002D00073720008004870472E7400080048704789
:1002E0000D740008436870B50B7043681B0A4B70AF
:1002F000C3888B70C379CB700A1D00254468A54262
:10030000A2EB010302F108021DD2036953F8354044
:1003100003EBC5060135736802F8084C260A02F89B
:10032000076C260C240E02F8054C1C0A02F8043C4B
:1003300002F8034C1C0C1B0E02F8066C02F8024C6F
:1003400002F8013CDAE74269CA544469CA18240A2F
:100350005470C48A9470C47DD47004330B44002557
:100360004469A542A3EB010203F108031DD2026A0E
:1003700052F8354002EBC5060135726803F8084CA7
:10038000260A03F8076C260C240E03F8054C140A01
:1003900003F8042C03F8034C140C120E03F8066C3B
:1003A00003F8024C03F8012CDAE7436A8B54446AE1
:1003B0008B18240A5C70C48C9C7090F82740DC7009
:1003C00004320A440025446AA542A2EB010302F16B
:1003D00008021DD2036B53F8354003EBC506013507
:1003E000736802F8084C260A02F8076C260C240EE3
:1003F00002F8054C1C0A02F8043C02F8034C1C0CE1
:100400001B0E02F8066C02F8024C02F8013CDAE717
:10041000426BCA54446BCA18240A5470C48E947038
:1004200090F83740D47004330B440025446BA54248
:10043000A3EB010203F108031DD2026C52F8354010
:1004400002EBC5060135726803F8084C260A03F86A
:10045000076C260C240E03F8054C140A03F8042C30
:1004600003F8034C140C120E03F8066C03F8024C4C
:1004700003F8012CDAE7436C8B54436C11441B12D4
:100480004B70B0F946308B7090F84730CB70836C6E
:100490000B71836C1B124B71B0F94A308B7190F861
:1004A0004B30CB7102F1080070BD0000004870476E
:1004B00080730008004870475F7300080048704769
:1004C0003F730008004870471E73000800487047DB
:1004D0005C720008004870473B720008D0F8940036
:1004E00070470000004870473F730008004870479D
:1004F0001E73000890F8E80570472DE9F04F436837
:100500000E689E42B7B004460D4604D9F10000695A
:1005100006F0E4FB20616660291D002004F1080E4E
:1005200062689042A1EB050301F1080162D211F863
:10053000072C130211F8062C0693002613040996C3
:1005400007960893DDE90823DDE90667164311F8ED
:10055000082C1F4342EA0608002311F8056C43EA01
:10056000070900230B9333060A93DDE90A23464665
:100570001643324611F8046C01964F4600261F437D
:1005800000963B46DDE900671643324611F8036CDE
:1005900036021F9600261F431E963B46DDE91E6766
:1005A0001643324611F8026C3604219600261F438A
:1005B00020963B46DDE920671643324611F8016C70
:1005C0003606239600261F4322963B46DDE9226726
:1005D00016431F4332463B46C4E902232269DEF834
:1005E000003042F8303002EBC006DEF804307360B1
:1005F000013095E7E918E85C8A784E78120442EAFF
:100600000626CA7806431F1D636946EA02669E42B3
:1006100004D9F100206A06F061FB20626661EB19E3
:10062000002204F1180E61698A42A3EB050003F170
:10063000080360D213F8070C010213F8060C0C91A2
:10064000002601040F960D960E91DDE90E01DDE9FD
:100650000C67064313F8080C0F4340EA0608002114
:1006600013F8056C41EA070900211191310613F8CE
:10067000046C039610910026DDE910010296DDE975
:10068000026740EA08000643304613F8036C36025E
:10069000259641EA090100260F4324963946DDE9F3
:1006A00024670643304613F8026C3604279600266A
:1006B0000F4326963946DDE926670643304613F890
:1006C000016C3606299600260F4328963946DDE947
:1006D000286706430F4330463946C4E90601206ABD
:1006E000DEF8001040F8321000EBC206DEF804100D
:1006F0007160013297E72A18295C937856781B04B9
:1007000043EA0626D3780E4346EA0366636A9E42AE
:1007100000F1040704D9F100206B06F0DFFA206332
:100720006662EB19002204F1280E616A8A42A3EB8B
:10073000050003F1080360D213F8070C010213F857
:10074000060C129100260104159613961491DDE90A
:100750001401DDE91267064313F8080C0F4340EA61
:100760000608002113F8056C41EA070900211791DA
:10077000310613F8046C059616910026DDE9160182
:100780000496DDE9046740EA08000643304613F8A2
:10079000036C36022B9641EA090100260F432A9684
:1007A0003946DDE92A670643304613F8026C360401
:1007B0002D9600260F432C963946DDE92C6706431B
:1007C000304613F8016C36062F9600260F432E96FE
:1007D0003946DDE92E6706430F4330463946C4E902
:1007E0000A01206BDEF8001040F8321000EBC20660
:1007F000DEF804107160013297E72A18295C9378BB
:1008000056781B0443EA0626D3780E4346EA03666D
:10081000636B9E4200F1040704D9F100206C06F0DE
:100820005DFA20646663EB19002204F1380E616BF7
:100830008A42A3EB050003F108035DD213F8070C0D
:1008400013F804BC010213F8060C189100260104E9
:100850001B9619961A91DDE91A01DDE9186706431E
:1008600013F8080C0F4340EA0608002113F8056C42
:1008700041EA070900211D91310613F8036C1C9110
:100880004FF0000ADDE91C0136023196CDF8C0A018
:10089000DDE9306740EA080040EA0A0006433046D6
:1008A00013F8026CCDF8C8A041EA090141EA0B0136
:1008B00036040F4333963946DDE932670643304646
:1008C00013F8016CCDF8D0A036060F4335963946A3
:1008D000DDE9346706430F4330463946C4E90E016B
:1008E000206CDEF8001040F8321000EBC206DEF893
:1008F0000410716001329AE72B5C63640544083090
:100900006A7843EA02236364AA7843EA0243636491
:10091000EA7843EA026363642B79A3646A7943EA61
:100920000223A364AA7943EA0243A364EA7943EA6F
:100930000263A36437B0BDE8F08FC3681A6810B4CF
:1009400014680A468168184623465DF8044B184728
:10095000294A53681968136819422DE9F0470CBFFA
:100960009268D268DFF89C80244C18BF1B04136087
:1009700098F8003006469BB985696562EF003846F5
:1009800005F0B0FE20633846656305F0ABFE2064D9
:100990003846656405F0A6FE0123206588F800301E
:1009A000D4F82490D4F83080276CD4F850A00023D9
:1009B000D8B2814503F1010518D9B36F1B69C40092
:1009C000234493ED007B08EB040383ED007B05F0EB
:1009D0006BFC07EB040E0B460246CEE9002305F044
:1009E00017FB5444C4E900012B46E1E703490448DE
:1009F000FFF7A3FFBDE8F087F00200209802002077
:100A0000800200207C0200200138002321FA03F23A
:100A10000833202B00F8012FF8D17047436870B5D8
:100A20000B7043681B0A4B70C3888B70C379CB7003
:100A300083680B7183681B0A4B7143898B71C37A7E
:100A4000CB71C3680B72C3681B0A4B72C3898B726C
:100A5000C37BCB72054600690C4606F09AF9064640
:100A6000014604F10C00FFF7CFFF3246296904F17B
:100A7000100005F09DFE06F1100070BD2DE9F84351
:100A8000044604300D46FFF7C9FFA3692B54A26941
:100A90002B18120A5A70628B9A70E27EDA70043058
:100AA0000027A3699F4205EB000800F1040915D255
:100AB000236A53F8270006F06CF9064601464046C3
:100AC000FFF7A2FF236A324653F8271005EB09000F
:100AD00005F06EFE013706EB0900E2E7636A2B546E
:100AE000636A1B0A88F80130E38C88F8023094F8B6
:100AF000273088F80330002005EB0903616A88423B
:100B0000A3EB050203F108031DD2226B52F830104B
:100B100002EBC0060130726803F8081C0E0A03F8E5
:100B2000076C0E0C090E03F8051C110A03F8042CBF
:100B300003F8031C110C120E03F8066C03F8021CD8
:100B400003F8012CDAE7636BAB54616BAB18090A4D
:100B50005970E18E997094F83710D97004322A4494
:100B60000020616B8842A2EB050302F108021DD24E
:100B7000236C53F8301003EBC0060130736802F8A1
:100B8000081C0E0A02F8076C0E0C090E02F8051C70
:100B9000190A02F8043C02F8031C190C1B0E02F897
:100BA000066C02F8021C02F8013CDAE7626CEA54B7
:100BB000616CEA18090A5170B4F84610917094F803
:100BC0004710D17004332B440026626C9642A3EB8D
:100BD000050003F108031DD2226D52F8361002EB16
:100BE000C6000136426803F8081C080A03F8070C1F
:100BF000080C090E03F8051C110A03F8042C03F86D
:100C0000031C110C120E03F8060C03F8021C03F867
:100C1000012CDAE7BDE8F8832DE9F84304460430F7
:100C20000F46FFF7FBFEA3693B54A2693B18120A6B
:100C30005A70628B9A70E27EDA704FF00008021DE3
:100C4000A369984507EB020902F1040614D2236A4E
:100C500053F8280006F09DF8054601464846FFF780
:100C6000D3FE236A2A4653F82810B81905F0A0FDD0
:100C700008F10108AA19E3E7636ABB54636A1B0A17
:100C800089F80130E38C89F8023094F8273089F82C
:100C9000033035464FF050080026636A9E420AD260
:100CA00008FB06F3A06FC2587919126818449047E0
:100CB00001360544F1E72846BDE8F88343682DE98D
:100CC000F0410B7043681B0A4B70C3888B70C3796B
:100CD000CB700D460A1D0446002160688142A2EBDC
:100CE000050302F104020FD2E36853F8213002F841
:100CF000043C180A02F8030C180C1B0E02F8020C34
:100D000002F8013C0131E8E72269EA542169EA1856
:100D1000090A5170618A9170E17CD17004332B44CF
:100D2000002122699142A3EB050603F104030FD2CF
:100D3000A26952F8212003F8042C100A03F8030CCE
:100D4000100C120E03F8020C03F8012C0131E8E735
:100D5000E369AB55E269AB19120A5A70E28B9A70DB
:100D6000E27FDA7004360027E3699F4214D2636A97
:100D700053F8270006F00DF880460146A819FFF742
:100D800043FE636A043653F82710A819424605F05B
:100D90000FFD46440137E7E73046BDE8F081F8B57E
:100DA0000E46037906F8013B054680680F4605F0BC
:100DB000F0FF044601463046FFF726FE2246A968AA
:100DC000781D05F0F5FC601DF8BD83882DE9F04124
:100DD0000B7083881B0A4B70054680680C4605F033
:100DE000D8FF07460146A01CFFF70EFE3A46A96849
:100DF000A01D05F0DDFCE86805F0CBFF07F1060853
:100E0000064601460A3704EB0800FFF7FDFD3246AF
:100E1000E968E01905F0CCFC286905F0BAFF3E440A
:100E200001460746A0190436FFF7EEFD3A46A01921
:100E300029693E4405F0BCFC6B69A35534441A0A89
:100E400062701A0C1B0EA270E370301DBDE8F081B9
:100E500010B500230360013911F8012F02FA03F4E1
:100E6000026808332243202B0260F5D110BD37B54C
:100E70000C4611F8013B0371054601A8FFF7E8FF96
:100E8000019B621D581D111B884204D912F8011BD9
:100E900002F8021CF7E72344002204341A71AC6004
:100EA00003B030BD37B50B7843604A7843EA02237C
:100EB00043608A7843EA02434360CA7843EA0263A4
:100EC00043600B7983604A7943EA022383608A791D
:100ED00043EA02438360CA7943EA026383600B7A80
:100EE000C3604A7A43EA0223C3608A7A43EA024330
:100EF000C360CA7A43EA0263C3600C4605460C31FC
:100F000001A8FFF7A5FF019B04F1100203F11000F7
:100F1000111B884204D912F8011B02F8021CF7E7E2
:100F2000234400220F34DA732C6103B030BD2DE965
:100F3000F743044604300F46FFF7B4FF3B183A5C12
:100F40009D785978DB782D0445EA0125154345EA5B
:100F50000365A3699D4200F1040604D9A900206A33
:100F600005F0BCFE20624FF00008A561C146A369F0
:100F7000984507EB060106F1040519D201A8FFF711
:100F800067FF019E7B192E44DA1B964204D913F8A1
:100F9000012B03F8022CF7E7BB19013D03F8019C74
:100FA000236A3D44E56143F8285008F10108DEE773
:100FB000BB5D8E784A78360446EA02261E43CB781B
:100FC00046EA0366636A9E4205D950217143A06FC9
:100FD00005F084FEA067666204F1280800264FF041
:100FE0005009636A9E420DD279194046FFF785FA8F
:100FF0000544A06F502209FB0600414605F0D8FBCE
:101000000136EEE7284603B0BDE8F08370B505462B
:1010100000F110042046FFF78AFFD5F890302046F3
:10102000BDE870401847F0B50B7883804A7885B0EA
:1010300043EA022383800C460646023101A8FFF7EB
:1010400007FF019FA31DBD1D1A1B954204D913F86C
:10105000012B03F8022CF7E7E31900225A71631DF4
:10106000B360611902A8FFF7F3FE2B1D029D07F183
:101070000A021D442244111B8D4204D912F8011B9F
:1010800002F8021CF7E76119013B2344002201F832
:10109000012C03A8F360FFF7DBFE03980435284416
:1010A00063191A1B904204D913F8012B03F8022C80
:1010B000F7E72218013D0023254402F8013C356181
:1010C00093785178D2781B0443EA0123215C0B43C7
:1010D00043EA02630430736105B0F0BD2DE9F341CA
:1010E00043680D689D4204460E4604D9A900C068B5
:1010F00005F0F4FDE0606560321D0021606881420A
:10110000A2EB060302F1040213D212F8023C12F819
:10111000030C1B0443EA002312F8040C034312F8E7
:10112000010C43EA0063E068A36040F8213001311C
:10113000E4E7F218F15C95785078D2782D0445EA0E
:1011400000250D431F1D236945EA02659D4204D910
:10115000A900A06905F0C2FDA0612561F319002175
:1011600022699142A3EB060503F1040313D213F89D
:10117000022C13F8030C120442EA002213F8040CA8
:10118000024313F8010C42EA0062A069626140F870
:1011900021200131E4E77319725D9F785978DB787B
:1011A0003F0447EA0127174347EA0367E3699F4281
:1011B00005F1040504D9B900606A05F08FFD60628D
:1011C000E7610027B846E3699F421AD2711901A866
:1011D000FFF73EFE2B1D019DF2181D44911BA942F5
:1011E00004D212F8011B02F8021CF7E77219013B46
:1011F00002F8018C626A3344236242F827300137D7
:10120000E1E7284602B0BDE8F0812DE9F04F044641
:10121000ADB004300D46FFF745FE2A18295C9378DF
:1012200057781B0443EA0727D3780F4347EA03673D
:10123000A3699F4200F1040604D9B900206A05F0B1
:101240004DFD2062A7610022A36929929A4205EB15
:10125000060106F104071BD22BA8FFF7F9FD2B9E10
:10126000299A3E44EB19591B8E4204D913F8011BED
:1012700003F8021CF7E7AB194FF0000103F8011C5B
:10128000216A7B1E2B44E36141F822300132DBE707
:10129000AB5D8E784A78360446EA02261E43CB7848
:1012A00046EA0366636A9E4204D9F100206B05F0AA
:1012B00015FD20636662EB19002204F1280E616AB5
:1012C0008A42A3EB050003F1080362D213F8070C6E
:1012D000010213F8060C04910026010407960596F6
:1012E0000691DDE90601DDE90467064313F8080C01
:1012F0000F4340EA0608002113F8056C41EA07098C
:101300000021099131060891DDE9080146460643AE
:10131000304613F8046C01964F4600260F430096A2
:101320003946DDE900670643304613F8036C3602A0
:10133000179600260F4316963946DDE916670643D1
:10134000304613F8026C3604199600260F4318969F
:101350003946DDE918670643304613F8016C360656
:101360001B9600260F431A963946DDE91A67064395
:101370000F4330463946C4E90A01206BDEF80010FD
:1013800040F8321000EBC206DEF804107160013242
:1013900095E72A18295C937856781B0443EA0626B9
:1013A000D3780E4346EA0366636B9E4200F104075E
:1013B00004D9F100206C05F091FC20646663EB1900
:1013C000002204F1380E616B8A42A3EB050003F1A1
:1013D00008035DD213F8070C13F804BC010213F8DC
:1013E000060C0A91002601040D960B960C91DDE97E
:1013F0000C01DDE90A67064313F8080C0F4340EAC5
:101400000608002113F8056C41EA070900210F9135
:10141000310613F8036C0E914FF0000ADDE90E015E
:1014200036021D96CDF870A0DDE91C6740EA080081
:1014300040EA0A000643304613F8026CCDF878A063
:1014400041EA090141EA0B0136040F431F96394670
:10145000DDE91E670643304613F8016CCDF880A025
:1014600036060F4321963946DDE9206706430F43D0
:1014700030463946C4E90E01206CDEF8001040F811
:10148000321000EBC206DEF80410716001329AE7F8
:101490002A18295C937856781B0443EA0626D378E9
:1014A0000E4346EA0366636C9E4200F1040704D9CA
:1014B000F100206D05F012FC20656664EB19002236
:1014C00004F1480E616C8A42A3EB050003F10803A6
:1014D00060D213F8070C010213F8060C10910026D5
:1014E0000104139611961291DDE91201DDE91067EE
:1014F000064313F8080C0F4340EA0608002113F8CE
:10150000056C41EA070900211591310613F8046CB6
:10151000039614910026DDE914010296DDE90267C5
:1015200040EA08000643304613F8036C360223965F
:1015300041EA090100260F4322963946DDE9226778
:101540000643304613F8026C3604259600260F43F6
:1015500024963946DDE924670643304613F8016CCA
:101560003606279600260F4326963946DDE926677C
:1015700006430F4330463946C4E91201206DDEF8B8
:10158000001040F8321000EBC206DEF80410716063
:10159000013297E72DB0BDE8F08F000030B585B07F
:1015A0000446094B019300230293039354F8EC3B48
:1015B00001AA1B680A2105469847204604F099FABB
:1015C000C5F8FC0005B030BD447100082DE9F041BC
:1015D00086B02B4B009300222A4BADF80420054621
:1015E000029303930493059200F20C5400F5AE6647
:1015F0004FF400772368BBB158689A68ADF80420AF
:101600001A68036802929B68984723680390586899
:101610000368DB68984721682B68049005971B686E
:1016200009696A46284698470434B442E2D105F273
:10163000D4564FF400772068C8B14368ADF8043041
:101640008368029303689B68984703902068036847
:10165000DB6898472B6804902068D3F80080036803
:1016600005975B6898476A4601462846C047043498
:10167000A642E0D1012385F8E83506B0BDE8F08147
:101680005C710008C6740008F0B585B000F1EC0587
:101690001F4B0193044600232846029303930E46F2
:1016A00004F027FAD4F8FC203146871A01A8FEF787
:1016B000D3FD029B4FF47A76B7FBF6F21344029304
:1016C00006FB1272039B134F284607FB023203925C
:1016D00004F00FFA029AB0FBF6F3013AD21A03991A
:1016E000C4F800210C4A06FB13030A4407FB13232A
:1016F000C4F8043104F5827104F5807000F006FB33
:10170000284604F0F6F9C4F8F00505B0F0BD00BFB6
:101710004471000840420F0000CA9A3BF7B5634C81
:10172000634D644F1C220021204605F066F82046D8
:10173000052100F013FD28465F4B40F8043B0024D0
:1017400004230322022105F1EC068DE818004FF472
:10175000807300F0D1FB304604F0E1F94FF46143AF
:10176000C5F8E83030464FF4007604F096F932467A
:10177000214605F58670C5F8FC40C5F80041C5F85E
:101780000441C5F8084105F038F832462146642680
:1017900005F5437005F031F83246214605F20C504C
:1017A00005F02BF83246214605F5AE6005F025F828
:1017B000424BC5F8FC3505F5C2630022C5F800466A
:1017C000C5F80446C5F80846C5F80C461A60C5F8C1
:1017D0001446C5F81846C5F81C46C5F82046384AD0
:1017E0003849C5F8D4452846C5F8D845C5F8DC457C
:1017F000C5F8E045C5F8E44585F8E845C5F8EC4589
:10180000C5F8F045C5F8F44585F8F84504F0E8FA60
:101810002D4B2E4A1A602E4A2E4E2F4D1C61002051
:101820000021C3E90A015D619C61DC611C625C62AC
:101830001C635C635E609C60DC60C3E90E011C6439
:101840005C64C3E912011C655360244B176014618A
:10185000234A1A60234A1A61234A5E619C61DC6153
:101860001C625D629C62DC621C635C639A631F4A5B
:10187000C3F890200122C3F894201D4ADC63C3E919
:1018800010019C64DC64C3E914019C65DC65C3E958
:1018900018019C66DC66C3E91C019C67DC67C3F821
:1018A0008040C3F888409A6003B0F0BDF002002089
:1018B0000C03002028720008047200088C710008D4
:1018C000C4010020CD1C000898020020EC71000823
:1018D00080020020A4710008C674000830090020AE
:1018E00018720008D4710008BC7100085109000882
:1018F00034720008F0B5632985B004460E4603DD56
:1019000090F8E855002D4DD0136804F213311B6890
:1019100010469847FF2384F80C33FE23C0F30722B8
:1019200084F80D33C3B284F80E331344DB4384F8D8
:10193000116346F3072684F80F2384F8103384F8E4
:10194000126304F2113105220023861DB24204DC29
:1019500011F8015B01322B44F8E700F1080520443F
:10196000DB43B5F5007F80F813330CDC04F54377D7
:101970003E460434F31B9D4214DD16F8011B20463D
:1019800000F02AFBF6E7094B019303238DF808309A
:10199000074B0393236801AA1B6807212046984739
:1019A0004FF0FF35284605B0F0BD00BF7471000848
:1019B000A57300082DE9F04700F1EC080446404605
:1019C00004F097F8D4F8F03542F6F822C31A93429F
:1019D00084BF002384F8E835D4F8D435054633B104
:1019E000D4F8F43583423CBF0023C4F8D43504F165
:1019F0000409002604F58677D4F80831ABB94846C7
:101A000000F092F9E8B994F8E80560B1D4F8EC3543
:101A100040F6C412EB1A934204D92046FFF7BEFDEC
:101A2000C4F8EC550020BDE8F087404604F061F8AA
:101A3000D4F80831401B9842E1D96FF00100BDE8AD
:101A4000F087484600F07AF90028DCDBD4F8E4356A
:101A5000D4F8D4A50344BAF1070FC4F8E43512D181
:101A6000D4F8E0355A1C2344C4F8E02583F80C016F
:101A7000D4F8D835013BC4F8D835002BBCD10823A5
:101A8000C4F8D435B8E7BAF1000F14D1FF2807D154
:101A90000123C4F8D43505F11403C4F8F435ABE7D9
:101AA000404604F026F841F28833401B9842A3D9FF
:101AB00084F8E8A5C1E7BAF1010F0DD1FE2801D1E4
:101AC0000223DDE794F8E835C4F8D465002B93D100
:101AD0002046FFF763FD8FE7BAF1020F09D1C4F882
:101AE000D805C4F8E0650323C4F8D435C4F8E40588
:101AF00082E7BAF1030F07D1D4F8D83503EB002001
:101B0000C4F8D8050423BBE7BAF1040F0BD15A423D
:101B1000D2B2DBB258BF5342FF2B01D10523AFE74E
:101B2000C4F8D46568E7BAF1050F03D1C4F8DC0541
:101B30000623D9E7BAF1060F0BD1D4F8DC3503EB55
:101B400000200723C4F8D435C4F8DC05D4F8D83510
:101B500093E7BAF1080F7FF44FAF5A42D2B2DBB22B
:101B600058BF5342FF2BC4F8D4657FF445AFD4F877
:101B7000DC356BB92046FFF711FD2046FFF726FD47
:101B8000C4F8EC55C4F8F0554FF0FF30BDE8F087CD
:101B90000A2B04D139462046FFF776FD2CE7062BA9
:101BA00008D1394604F2FC50FFF798FA012384F873
:101BB000F83521E70B2B02D184F8E8651CE7F833F0
:101BC00054F8230000283FF417AF036839461B6818
:101BD000984711E7364B374CDA681B684FF4E13110
:101BE0001B0480B5201D1360C4F8E81003F072FEDA
:101BF0000023C4F8D435C4F8D835C4F8E035C4F8A7
:101C0000DC3504F5A16252F8041F002947D12A4AA5
:101C100004EB83017D33C1F80C259360D460274A1F
:101C2000002352F8041F00293DD103F5AE71244A68
:101C300044F8212064335360224C0227102067624D
:101C400004F050FD064620631020676304F04AFD4F
:101C5000054620641020676404F044FD0022002340
:101C6000C6E90023C6E90223174B134E2065002264
:101C7000C5E90023C5E9022300224FF08043C0E9F3
:101C80000023C0E902230B4D21463046FEF755FEE6
:101C90002846FFF78FFE142003F0A0FFF4E701337E
:101CA000192BB0D1BBE70133192BBAD1C4E700BF60
:101CB000F00200200C0300208002002078080020A1
:101CC00030090020980200200000F03F10B5044BBE
:101CD000044640F8043B00F0C3F8204610BD00BFA6
:101CE000047200080748084A08B5121A002104F0D7
:101CF00084FD04F033F804F0D1FC04F036F804F06D
:101D000071F800BF600200203829002030B5026859
:101D10000D68044CB5FBF4F31A4404FB1353026042
:101D20000B6030BD00CA9A3BD0F8C020D0F8C40088
:101D3000101A18BF012070470120704710B5D0F865
:101D4000C420D0F8BC100346501CC3F8C400885C03
:101D5000D3F8C820D3F8C440013AB4FBF2F102FB37
:101D60001142C3F8C42010BD034610B107C983E86F
:101D700007007047704742688168036812F0010FDE
:101D80004FEA62021CBF8858C35888181847C368B6
:101D900010B504460BB19B689847204610BD30B57E
:101DA000044685B000F14C05284602F073FA30B3C2
:101DB000D4F8D020D4F8D4309A4216D0D4F8D43005
:101DC000D4F8CC20591CC4F8D410D15CD4F8D83045
:101DD000D4F8D400013BB0FBF3F203FB1203C4F8C8
:101DE000D430284602F060FADEE7002320460122C4
:101DF0006946039303F0FCFD6846FFF7C8FF05B092
:101E000030BDC36810B504460BB19B6898472046A7
:101E100010BD000070B506460B4B46F8983B0446D3
:101E200046B100F1B805B54204D0103D2846FFF791
:101E3000AEFFF8E704F13800FFF7E3FF04F12800F4
:101E4000FFF7DFFF204670BD5877000810B5044645
:101E5000FFF7E0FF204603F0E1FF204610BD000041
:101E600030B5134B036085B000252A466946044609
:101E7000039503F0BDFD6846FFF789FF012269461F
:101E80002046039503F0B4FD6846FFF780FF04F198
:101E9000CC0000F023F904F1BC0000F01FF9054B61
:101EA00023602046FFF7B6FF204605B030BD00BFD7
:101EB000D07400087077000810B50446FFF7D0FF13
:101EC000204603F0ABFF204610BD000010B586B0E1
:101ED0008DE80C00019B029203930491054B9DF841
:101EE0002020059302A903F083FD02A8FFF74FFF0E
:101EF00006B010BD407400087FB504461D464FF47F
:101F00001653089E03F0ACFD20460F4B40F8BC3B37
:101F1000294600F0F2F806FB05F104F1CC0000F0D0
:101F2000ECF80A4B029300230393009304AB204682
:101F300013E90C002146FFF7C9FF2046C4F8DC5026
:101F4000C4F8E06004B070BDD0740008B71F00088A
:101F500070B5044686B04C3002F09CF9C0B102ADB9
:101F60000122294600262046059603F041FD284619
:101F7000FFF70DFF2046FFF712FF064B02930123E8
:101F80000396009395E80C0021462046FFF79EFF3C
:101F900006B070BD9F1D00084368026810B55C1C48
:101FA0004460D154C3684168013BB1FBF3F203FBC9
:101FB0001213436010BD38B500F14C0504462846A5
:101FC00002F04CF938B1284602F052F9C1B204F1DE
:101FD000BC00FFF7E1FF38BD38B505460C46CC30F4
:101FE000C9B2FFF7D9FF2846FFF7B2FF204638BD38
:101FF0002DE9F04107460C46B1B10D4600F1CC0881
:102000002E4616F8011B21B14046FFF7C5FF3546A5
:10201000F6E70A214046FFF7BFFF2C1B3846FFF7C3
:1020200097FF601CBDE8F0810846BDE8F0812DE90E
:10203000F04107460D4691B1A2B18C180E4600F151
:10204000CC08B44205D016F8011B4046FFF7A4FFA8
:10205000F7E73846FFF77CFF601BBDE8F0810846D4
:10206000BDE8F0811046BDE8F08100000EB42DE916
:10207000F04185B0D0F8DC2002AFD31D23F0070378
:1020800007F12404ADEB030D54F8048B02AE0546B2
:102090000021304604F0B1FB2246414630467C60C8
:1020A00004F098FED5F8DC30834202460CD2009052
:1020B0005D220848084900F017F900200C37BD469A
:1020C000BDE8F04103B0704731462846FFF7AFFF47
:1020D000F4E700BF8D7400084C74000810B5044686
:1020E000006808B103F096FE204610BD0021416053
:1020F000C2688160006804F080BB38B504460846B9
:102100000D4603F07BFEE56020602046FFF7EEFF02
:10211000204638BD38B504460D4603685AB182687A
:1021200013602046012101F0BFFC29462046BDE88E
:10213000384001F0B5BCC2681B04F1E770B50E462B
:102140000446154601F08CFC013606D02A4620468E
:102150000021BDE87040FFF7DDBF70BD0022FFF732
:10216000EDBF000000487047FC740008014800F013
:1021700003B800BFFC740008036870B5DB68044650
:10218000984763685A6823681AB99B68BDE870402D
:1021900018475B68156898476368281A00285A68CA
:1021A00007DC916859601B68002BEAD0506898479B
:1021B000E7E7236810681B69BDE8704018470368AB
:1021C0005B68184710B5044601300DD110BD9C4224
:1021D00009D12046896801F097FD20460021BDE81D
:1021E000104001F015BE0C31B1F900305A1CEED18F
:1021F0000248BDE8104000F077B800BF49750008FC
:10220000884208B508D0431C06D0013106D00448E6
:1022100000F06AF84FF0FF31084608BD0146FBE7C1
:1022200018750008B1F900305A1C01D118467047E2
:10223000834201D1486870470C31F3E7421C10B566
:10224000044607D0FFF7EEFF431C044602D10248C4
:1022500000F04AF8204610BD2975000800B589B085
:1022600000F018F8052101A8FFF778FF039B019AF9
:102270001A60962003F0B2FC019B049A1B041360C1
:10228000962003F0ABFCF1E7EFF31080C04300F0C1
:102290000100704708B5FFF7F7FF72B6064B1A68E2
:1022A00022B980F00100054AC0B210701A681A689D
:1022B00001321A6008BD00BFD4090020D0090020F7
:1022C00008B5074B1A6852B1FFF7DEFF1A68013AEA
:1022D0001A601B681BB9034B1B7803B962B608BDB3
:1022E000D4090020D00900200FB4012008B503F064
:1022F00079FD01F002BC000008B5024C2368984744
:10230000FCE700BFC801002030B502788C78436834
:10231000013AD2B213B19D78A54207D2022A4B608E
:10232000416006D803B19960886030BD18465B688B
:10233000F0E700238B6030BD02784368013A5968AA
:102340004160022A4FF0000205D809B188605A6046
:102350009A60184670475A60FBE70000034B5A68C2
:102360004260002282605860704700BF441E002017
:10237000104BDA6810B58AB19A8ADC688A420CD3AD
:10238000C460D860C468036104B12061521A92B27B
:102390008282998A8A1A9A8210BD3CB900248A1ACC
:1023A000C460D86003619A82848210BDA38A1A44F3
:1023B0002346E2E75C1E00202DE9F041174DEB6853
:1023C00053B1AB8A164FDFF85C80013BAB8200262D
:1023D000AA8A0AB9EC680CB9BDE8F081A36833B1E8
:1023E00061685960616809B18B606260A6602146CE
:1023F0003846FFF789FFA38AAB826378042B01BFBD
:10240000D8F80030E28A9B18A38201236370E36846
:10241000EB600BB11D61E6602661D9E75C1E002010
:10242000441E0020A428002083682BB142685A6013
:1024300042685AB193607047054B5A68904202D186
:1024400042685A6070471346002AF6D1704700BFB1
:10245000441E002010B5846801462CB94378012B36
:102460000DD1074C03E0A4682378002BFBD008466D
:10247000FFF7DAFF2046BDE81040FFF745BF10BD6B
:10248000441E0020036910B563B1C268DA60C268F7
:102490004AB1998A848A2144998213610023C360D6
:1024A0000023036110BD9A82FAE7000070B4114B5B
:1024B000DD78EFF31086EFF3108272B69A789542CA
:1024C00011D901329A701A78541CA54208BF002411
:1024D0001C7006B962B6954207D903EBC20370BC03
:1024E000586099607047002EF4D0022070BC00F054
:1024F00029B800BF781E002008B50B4800F0A4FCE6
:102500000A4B18600A4800F09FFC0A4B18600A4802
:1025100000F09AFC094B186004F0C0F8002108464E
:10252000BDE8084003F021BCA8750008001F00208A
:10253000A4750008E0090020A0750008D809002053
:10254000FFF7DABE10B5044600F0ECFB2146024668
:10255000BDE810400148FFF7C7BE00BF687500081E
:1025600003F05EBC0B4A0C4B0C4830B41A60C2F14D
:10257000005303F50033B3F5806F194628BF4FF4BD
:102580008061074D074C01605B1A1A442A60236082
:1025900030BC704738290020341E0020E409002098
:1025A000E8090020301E002000F022FDFFF7DAFFCE
:1025B0000348002100F0D0FC00F036FBFEE70000ED
:1025C000CC010020024B4FF0FF31186800F05ABCDC
:1025D000E0090020014B186800F07CBCE0090020F5
:1025E000836A9B0804BF224B1B88F0B5056B08BFAC
:1025F0009B0805EB8302540748BF043A4FF08076EE
:1026000002E94200A2F14004A2F14406A2F10C0743
:102610004FF0000E46F804EFBE42FBD1C66942F807
:10262000206C41631249C4620968C90017D5112B97
:1026300015D9103B6FF007015B084B43A3F138013C
:102640000A444FF0CC30214691420BD108331C4450
:10265000231F9D423CBF4FF0CC3344F8043C054B54
:102660002B60F0BD41F8040C41F8080DECE700BF09
:10267000B0750008A52E5AE290F82520C36A12B161
:102680006033196070472033FBE710B590F82540A0
:10269000C36A1CB1603383E8060010BD2033FAE73B
:1026A000054B1B7823B9054B4FF080521A607047D9
:1026B000034B01221A7070473C1A002004ED00E021
:1026C0003D1A002038B51A4B1A4C18680123437084
:1026D000FFF744FE6578A3783BB917486570FFF7AC
:1026E0002BFEBDE8384000F05DBD04EBC503586823
:1026F00002789AB9198900F0BBF9E37801359D4257
:1027000008BF0025EFF31083EFF3108272B6A278B2
:10271000013AA270002BDED162B6DCE7012A03D1B8
:10272000996800F033F9E8E701F044F8E5E700BF05
:102730005C280020781E0020441E0020084B1A68E8
:10274000084B1A6000225A60072243F8042C064AFC
:10275000136843F07F4313604FF0FF30704700BFB2
:10276000C875000814E000E020ED00E070470000AC
:1027700008B50B4B186801234370FFF7EFFD00F01D
:10278000ADF9084A136801331360FFF715FE00F036
:1027900091FC0548FFF7D0FDBDE8084000F002BD00
:1027A0005C280020A4280020441E0020064B1A6844
:1027B000136BD26A934203D81A68044B9A4202D030
:1027C0000120FFF7BFBE70475C280020A52E5AE20B
:1027D000002ABBBF22F000420732033222F0070278
:1027E000A8BF22F0030210B5B4BF10230C2392B18E
:1027F000D4188C420FD80144034454424160036012
:10280000826021449818814202D300510346F9E7BF
:102810000020186010BD012010BDEFF3108372B6C8
:10282000026803F001030AB11168016003B962B6DE
:102830001046704781420DD3436899420AD2EFF3A4
:10284000108372B602680A60016013F0010003D1C0
:1028500062B670470120704700207047012310398D
:1028600003708908002343708370436003814381B0
:102870008381C1817047000070B585890446164682
:10288000002D38D043891A1D013350F822200A60E8
:10289000C2899BB29A42438104BF002343814368AB
:1028A000F3B14378022B1BD1FFF746FD002105460B
:1028B000FFF7E2FE2389E9691A1D013344F822106B
:1028C000E2899BB29A42238108BF0023284608BFB1
:1028D0002381FFF7D7FD284600F07EFC002070BD65
:1028E000EFF31080EFF3108372B6013DA58100284D
:1028F000F4D162B670BD4AB14268094B42B1196861
:10290000FFF702FD0821304600F08AFC012070BD6F
:102910001B6843605A60986001234370F2E700BF70
:102920005C280020C2898089101A704708B5FFF71B
:10293000BDFDBDE80840FFF7B3BE838910B504466E
:102940000BB34389043350F823300B604378022BD8
:1029500004D10021FFF7AAFDFFF7A2FEEFF31083D9
:10296000EFF3108272B6A289013AA28103B962B66E
:102970006389E28901339BB29A42638101D10023CA
:102980006381042010BD184610BD0000436870B577
:1029900004460E46002B4BD04578022D20D0032D47
:1029A0000AD0012D61D1FFF7C7FC04463246102141
:1029B000FFF76BFE65700EE00846FFF72EFF054639
:1029C000002852D02046FFF7B7FC29460446FFF7FF
:1029D00053FE012363702046FFF754FD214622E099
:1029E000FFF7AAFC00210546FFF746FE2389E969A7
:1029F0001A1D44F82210EFF31082EFF3108172B623
:102A0000A1890131A18102B962B6E28901339BB289
:102A10009A42238104BF0023238101236B7028463F
:102A2000FFF730FD29461148BDE87040FFF76CBC48
:102A30008089E189884213D223891A1D44F82260D3
:102A4000EFF31082EFF3108572B60130A08102B966
:102A500062B601339BB2994208BF0023238170BD47
:102A60000320BDE87040FFF76DBD70BD441E00201F
:102A700010B5038B42781943062A04460183438B21
:102A800015D133EA010219D121EA0301218320463D
:102A9000FFF7F8FC012320466370628B0821FFF7E3
:102AA000F4FD21460648BDE81040FFF72DBC052A7D
:102AB00004D111EA030201D04283E5E710BD00BF53
:102AC000441E0020034B00221A60034A1268DA8079
:102AD000704700BF48280020AC75000808B50E4BB1
:102AE0005A680E4B196891420D4905D01A60DA8870
:102AF0000868013A02449A8098880A8890420AD16C
:102B0000002205481A60FFF717FCBDE8084001469F
:102B10000148FFF7F9BB08BD441E002048280020EB
:102B2000A42800200B4A136830B5002443B9036081
:102B3000816013B19D68691A996044B1206030BD0D
:102B40009D68A942F3D31C46491B1B68EEE7106041
:102B500030BD00BF58280020C0B1431C11D00C4B21
:102B6000984211D80B4B1B684FF47A715A1E01FB27
:102B70000020B0FBF3F34FF6FE70834206D898B204
:102B800070474FF6FF7070474FF6FE70704700BFFA
:102B900000093D006475000838B1830704D103784B
:102BA000002B18BF0020704700207047B0B50E4DB5
:102BB000287800AFA8B90D4C236893F8241000F0D2
:102BC00051FB2368DA78FF2A03D1DA6A203282F3D4
:102BD000098862680AB984E80C0000F0FBFC012354
:102BE0002B700020B0BD00BF552800205C280020BD
:102BF000014B1878704700BF5528002010B5EFF33F
:102C0000108434B9EFF305841CB9EFF31484E4079E
:102C100002D4034B187810BDDFF808C000DF10BDE8
:102C200055280020F12B000890B589B000AFEFF3D4
:102C30001083002B37D1EFF30583002B33D1FFF73F
:102C4000DDFF28B9194C246814B1646804B1A047A9
:102C5000EFF3148404F00304022C18D0032C1CD0CE
:102C6000012C1ED007F1200484F30988104C24782D
:102C7000E40710D5022484F31488BFF34F8FBFF309
:102C80006F8FDFF830C000DF2437BD4690BD084CA1
:102C90002478E407F5D40324EDE7054C2478E40711
:102CA000EFD5FF20F0E78220EEE700BF44280020A8
:102CB00092750008AD2B000870B50B46164602460B
:102CC00010B90024204670BD00680028F9D0B2F980
:102CD0000440E51CADB2062DF3D8D168C1B112692C
:102CE000043444EA012100F0FBFA0028E9D00A4B41
:102CF0000A4A013853F82040E36A5A63084B1B68BC
:102D000043B19B6833B13146E0789847E063D9E737
:102D10000A46E5E7E663D5E728220020A52E00084D
:102D20004428002008B500F095FA18B10138024B8C
:102D300053F8200008BD00BF2822002010B5FFF77F
:102D40002BFF044670B1084B1B681BB1DB680BB14D
:102D5000C06B9847E07800F019FBFF280CBF81207A
:102D6000002010BD802010BD4428002008B528B1E7
:102D7000FFF7F2FE00F01AFD402008BD08BD00007C
:102D800010B5EFF3108434B9EFF305841CB9DFF804
:102D90000CC000DF10BD822010BD00006D2D0008AA
:102DA000830705D138B1436901691B68184670472C
:102DB00000231946FAE70346FBE7000010B5044676
:102DC0000846DFF80CC000DF84E80300204610BD91
:102DD000A12D000810B548B1046824B1237823B9A7
:102DE000204600F03DFC204610BD002010BD70B50F
:102DF00010F0030405460E4611D180B10378032B71
:102E00000DD10846FFF7A8FE0146284600F0A0FCB9
:102E1000012806D1002E14BFC120812070BD802062
:102E200070BD204670BD820708B50AD148B103784D
:102E3000032B06D100F01CFCFF280CBF81200020D2
:102E400008BD802008BD000070B50546EFF3108472
:102E500094B9EFF305867EB9EFF31484E40706D442
:102E6000064C24781CB9BDE87040FFF7B3BF284674
:102E7000DFF80CC000DF70BD002070BD55280020B9
:102E8000D52D000810B5EFF3108434B9EFF30584A5
:102E90001CB9DFF80CC000DF10BD822010BD00009F
:102EA000EF2D0008084808B54FF0FF310068FFF724
:102EB000E9FFDFF818C000DF0446FFF751FB2046AA
:102EC000DFF80CC000DFFEE750280020252D0008A9
:102ED0003D2D000810B5EFF3108434B9EFF30584ED
:102EE0001CB9DFF80CC000DF10BD822010BD00004F
:102EF000272E00082DE9F04180460F461646EFF3D5
:102F0000108404BBEFF30583D3B9EFF31483DB071D
:102F100006D40E4B1B781BB9BDE8F041FFF7CCBEC1
:102F20000B4D4FF0FF312868FFF7ACFF40463946A4
:102F30003246DFF820C000DF04462868FFF7CAFFEA
:102F40002046BDE8F0810024FAE700BF55280020A4
:102F500050280020B92C00080022FFF7CBBF10B585
:102F6000044660B1016851B1406848B1037833B993
:102F70000431890089B2FFF771FC606810BD002040
:102F800010BD000038B5114C23780BB900F0A8FA39
:102F90000F4B25781B68FF229A708DB929460D4882
:102FA000FFF7DDFF0C4B2A46186029460B48FFF758
:102FB00083FE0B4B18600B48FFF746FF0A4B186067
:102FC00001232370094B0020187038BD54280020BD
:102FD0005C28002098750008041F0020B4750008C4
:102FE000FC1E0020CC750008502800205528002029
:102FF00010B5EFF3108474B9EFF305845CB9EFF307
:103000001484E40703D4BDE81040FFF7BBBFDFF82A
:103010000CC000DF10BD822010BD0000852F00080D
:103020002DE9FF410C46804618B30378012B25D1CA
:103030000846FFF791FD02A902464046FFF71CFC37
:10304000012811D10020002C0246034618BF402061
:10305000029904460D4616461F462046294632462A
:103060003B4604B0BDE8F081002002460346102034
:10307000EEE78024054606460746EEE70025802455
:103080002E462F46E9E770B50E461446054660B158
:103090005AB90378012B08D1FFF744FC38B1284610
:1030A0003146FFF743FC204670BD802070BD812073
:1030B00070BD0000F8B5114E34682CB1A368104FF4
:1030C000013BA360A26802B1F8BD2568386835608D
:1030D0002146FFF7D8FF10B10420FFF733FA6379D8
:1030E000012B07D1E1682046FFF71CFD002DEBD036
:1030F0002C46E7E701232371F8E700BF582800209A
:10310000041F00207FB504461646084601B122B1CF
:1031100080232360204604B070BD0B78012BF7D1CB
:1031200002A9FFF70AFC042808BF102301AD14BF51
:103130000196019395E8070084E80700EAE700009C
:1031400038B504461546EFF3108010B9EFF305804B
:1031500028B12A462046FFF7D5FF204638BD08464D
:103160001146DFF80CC000DF84E80700F5E7000037
:10317000213000087FB50A4C21684FF0FF3203A8C8
:10318000FFF7DEFF039B102BF6D1049901A8FFF790
:1031900015FE019B002BEFD002989847ECE700BF8B
:1031A000041F0020054B586002234370044B1B682A
:1031B0001BB11B690BB1C06B184770475C2800201E
:1031C0004428002008B50348FFF7B6F8BDE80840DA
:1031D000FFF7E8BF441E002070B5044618B9BDE8EB
:1031E0007040FFF7EFBF0C4EA278306883789A42A8
:1031F0004FF0010508D9FFF7B1F833685D7020463C
:10320000BDE87040FFF7CEBF657021460348BDE8BA
:103210007040FFF779B800BF5C280020441E0020F2
:1032200038B50D46014680B14FF6FF739842074C02
:1032300002D02068FFF79CF8236805485D70FFF70F
:103240007BF8BDE83840FFF7ADBF38BD5C280020F3
:10325000441E0020024B186800B1C078704700BFC0
:103260005C28002010B5A8B9194B1B68997083F829
:103270002410184843689B788B4201D8002010BD69
:10328000134C2168FFF740F8236801225A70FFF7BA
:1032900099FFF3E7104B1B88984217D801380F4B62
:1032A00053F8204094B10A4BA1701B6884F8241095
:1032B0009C42DED02046FFF7CDF86378012BDDD1AC
:1032C0000448FFF739F8FFF787FFD7E7FF2010BD65
:1032D0005C280020441E002094750008282200204D
:1032E0002DE9F04711F0FF0F0D46804623481646A2
:1032F0009A4608BF0135FFF790FA044620B94FF00F
:1033000000094846BDE8F0871D4B06631B881D4E2B
:10331000280AA06200218B4201F10109EFD006EBDF
:1033200089020F4652F8042C4946002AF3D1EDB227
:10333000012384F80390C4F81CA0C4F838A02270BC
:103340006370A57084F824506260A260E26022611C
:103350002262A282E2822283628384F8252018B945
:103360000948FFF75AFA206320464146FFF738F92B
:10337000204646F82740FFF72FFFC2E764220020CF
:103380009475000828220020302600202DE9F84FEF
:103390004D4D18B12B68DB78984241D12C68DFF88D
:1033A0003C810023637002F048FDE062FFF7FEF904
:1033B0002B681C6A0127A4B92A684449D378444879
:1033C000013B41F82340116BFFF734FA296841486B
:1033D0000C63FFF72FFA2C60FFF7F4FE2046BDE8E0
:1033E000F88F6368B3B12046FEF7A6FF00210646BA
:1033F000FFF742F93046FFF745F87770314640460F
:10340000FEF782FFE368326A6780A660E26034629A
:103410001C46D0E7E2686380A360E3601446CAE715
:103420002D4B1B8898424DD8284B471E994653F880
:103430002760002E46D03046FEF7F6FF3046FFF7F5
:1034400021F8DFF898B0346A4FF0010AB4B9316B53
:103450001F4849F82740FFF7EDF9314634631D480E
:10346000FFF7E8F91D48296843689A788B789A42F3
:10347000B4D901234B70FEF747FFADE76368DBB1BA
:103480002046FEF759FF00218046FFF7F5F8404639
:10349000FEF7F8FF88F801A041465846FEF734FFD2
:1034A000E368D8F82020A4F802A0C4F80880E260FD
:1034B000C8F820401C46C9E7E2686380A360E36067
:1034C0001446C3E7FF2489E75C2800202822002057
:1034D000302600206422002094750008441E00203D
:1034E00038B52C4B2C491A880023184693424DD3EB
:1034F0002A4B2B4819882B4C4022FFF769F92A4B9D
:103500002A481A882A4B42F000421968FFF760F9EE
:10351000284B1988284B08221868FFF759F9FF2310
:103520000025E3702148A562012363702570A57012
:1035300084F824506560A560E56025612562A58258
:10354000E5822583658384F82550FFF766F91B49DA
:1035500020632046FFF744F8194B04221A705D607F
:10356000184B1A70DD601D619D82174B20461C6050
:1035700002236370FFF716FE144A154B12781D7074
:103580005D70DA70BDE83840FFF79CBA41F823005F
:103590000133ABE79475000828220020607500080D
:1035A0006422002064280020B07500083026002026
:1035B0005C75000862750008DC09002041250008E0
:1035C000441E00205C1E00205C280020917500082D
:1035D000781E002008B51E4B1A6842F47F021A605C
:1035E0001B681B0203F07F43DB43B3FA83F3194AE2
:1035F000194812680168DBB2C3F10803C2F3022262
:10360000934298BF531C6FF0807202FA03F303F0E9
:103610007F4321F07F4213430360FFF78FF80F4B86
:103620000028186012DB00F1604000F56440FF22C2
:1036300002701A6853099B0003F1604303F561436C
:1036400002F01F02012101FA02F21A6008BD00BF58
:1036500020ED00E00CED00E01CED00E04028002033
:10366000032303700023438043608360C36070477B
:103670002DE9F84343880546002B63D0324F81681B
:103680003A6891425ED1013B9BB243801BB100245A
:103690002046BDE8F8830B6A984229D1C3680B62C3
:1036A00091F824300C6A5CBB8B706A68DFF89C80F0
:1036B000002A3BD02846FEF73FFE21460646FEF78D
:1036C000DBFF3046FEF7DEFE336AEB604FF00109A8
:1036D0003968D8F80430A5F80290AE6035628A786F
:1036E0009B789A4214D33046FFF776FDD0E7134615
:1036F000002BD5D0DA689542F9D1EA68DA60CFE7D5
:1037000062681AB19278934238BF1346E468CAE7F8
:103710004046FEF7F9FD31464046FEF7F5FD3B68B1
:1037200083F8019086F801902046DDE7D8F8042060
:1037300092789A42ABD94046FEF7E6FD3B680122FB
:103740005A70F1E7FF24A3E75C280020441E002004
:10375000438870B504460E46134D43B92A6882600B
:10376000116AC160106201336380002070BD8068FF
:103770002A689042F7D081B1937882789A4202D237
:103780008370FEF767FE62684AB129682046FEF73B
:10379000BBFD09213046FFF743FD012070BD2B68BA
:1037A00063605A609C60F4E75C2800200321FFF707
:1037B00037BD0000426810B57AB1FEF7BDFD044682
:1037C000FEF760FE012161702046FEF755FF21469D
:1037D0000448BDE81040FEF797BD428801324280A0
:1037E00010BD00BF441E002070B5134C23681A6939
:1037F000950707D5DA68900704D56FF002021A61C1
:10380000FEF7B4FC23681A69510713D5DA6852072A
:1038100010D56FF00402094E1A615D6A3368EB1A25
:10382000B3F57A7F06D302F01FF8236805F57A72A4
:103830009A63356070BD00BFA8280020501A002090
:1038400030B589B001A903A801F08AFF01F058FF43
:1038500000230293244B01901A6C244C42F008027E
:103860001A641A6C02F008020292029A1A6A42F072
:1038700008021A621A6A22F008021A62069AA3F56E
:103880000B3323604FF0FF33E360194B4ABBB0FBAF
:10389000F3F001380025606014482561A56065617A
:1038A00001F0DAFD1349322000F054FE124B0F48AC
:1038B0004FF480225A60294601F00EFE04210B4885
:1038C00001F00AFE23680D4A596A1160126802F578
:1038D0007A729A63DA68284642F00402DA6009B024
:1038E00030BD4000D3E700BF00380240A8280020C8
:1038F00040420F00E937000800E100E0501A0020C4
:10390000034B044A1360DA6822F00402DA6070475D
:10391000000C0040A8280020034B044A1360DA681A
:1039200042F00402DA607047000C0040A828002032
:1039300000B5002389B007286FD8DFE800F0041332
:10394000202D3A4754610093364B37481A6B42F0AA
:1039500001021A631B6B03F001030093009B09B083
:103960005DF804FB01932F4B30481A6B42F00202C2
:103970001A631B6B03F002030193019BEFE70293B1
:10398000284B2B481A6B42F004021A631B6B03F09E
:1039900004030293029BE2E70393224B25481A6B30
:1039A00042F008021A631B6B03F008030393039BA6
:1039B000D5E704931B4B20481A6B42F010021A63A0
:1039C0001B6B03F010030493049BC8E70593154B8E
:1039D0001A481A6B42F020021A631B6B03F0200393
:1039E0000593059BBBE706930E4B15481A6B42F0F7
:1039F00040021A631B6B03F040030693069BAEE77D
:103A00000793084B0F481A6B42F080021A631B6B36
:103A100003F080030793079BA1E70B48FEF764FCC4
:103A200000209CE7003802400000024000040240F1
:103A300000080240000C0240001002400014024046
:103A400000180240001C0240D075000810B500218B
:103A5000044604F00F0400F057F90120A04010BD07
:103A600070B504464B1C0E46218216D0C1F30310DC
:103A7000FFF75EFF05463046FFF7E8FF238A074A57
:103A8000656103F00F03206052F82330A36105F154
:103A9000100318356360A560E56070BDF47500081B
:103AA000B0F9100000F0B4B910B58369446971B978
:103AB000216893FAA3F2B2FA82F20320520000FACC
:103AC00002F221EA020293FAA3F3226010BD2268F7
:103AD00093FAA3F1B1FA81F193FAA3F30320490019
:103AE00000FA01F1B3FA83F322EA01025B0001213B
:103AF00001FA03F31343236010BD08B5FFF700FF7D
:103B00000121002001F0EAFCBDE80840FFF704BFF6
:103B100043692DE9F0413A4C0D46D90720602CD578
:103B20008168DFF8E8E08268364F8368364E01EA44
:103B30000E01714502EA070204BF4FF0010EC0F802
:103B400008E0BA4203EA060304BF4FF480778760B7
:103B5000B34204BF4FF4803686602C48814205D0C2
:103B600028498A4202D0284A934206D1284B294A42
:103B70001B6852F82500012198472368DA685B69C1
:103B8000920708D09F0706D5214B224A1B6852F89E
:103B9000250000219847236899695A695B698E0757
:103BA0000AD5900508D5190406D5194B194A1B6882
:103BB00052F825000521984722689769566952698D
:103BC00017F0040706F4806609D046B1120406D542
:103BD0000F4B104A1B6852F82500072198472368AD
:103BE0005B695FB156B11B0408D5094B094A1B68D4
:103BF00052F825000221BDE8F0411847BDE8F081E8
:103C0000541A002000030008000003100300000401
:103C10009C1A0020941A002000210148FFF778BF69
:103C200000640040FFF7F8BFFFF7F6BF012101482D
:103C3000FFF76EBF00680040FFF7F8BFFFF7F6BF61
:103C4000054B186830B901221A60044B044A1A6007
:103C5000FFF7F6BD704700BFA01A0020A82800207B
:103C6000000C004008B5044B1B680BB9FFF7E8FFD8
:103C7000024B586A08BD00BFA01A0020000C00408B
:103C8000044B054A13605863DA6842F00202DA60B6
:103C9000704700BF000C0040A8280020034B044AD6
:103CA0001360DA6822F00202DA607047000C00400C
:103CB000A8280020034A044B13606FF002021A6127
:103CC000704700BFA8280020000C004030B5C36832
:103CD00091FAA1F4B4FA84F491FAA1F10325B1FAAE
:103CE00081F1640005FA04F4490023EA040302FAAE
:103CF00001F11943C16030BD012A02D0022A18BF68
:103D00000022FFF7E3BF00002DE9F0413F4B00F038
:103D10000F08C0F3031053F828400E4601F00705C2
:103D2000FFF706FE836894FAA4F1B1FA81F194FAE0
:103D3000A4F20327490007FA01F1B2FA82F223EA5A
:103D400001035200022101FA02F213438D42836003
:103D500028D0BD4241D0012D3FD00023026894FA03
:103D6000A4F7B7FA87F794FAA4F14FF0030EB1FA6B
:103D700081F17F000EFA07F7490022EA07028B4023
:103D8000013D1343012D036005D8436832074CBF42
:103D90002343A3434360C6F301122146BDE8F0412B
:103DA000FFF7AABFB8F1070FC6F3032717D9426A76
:103DB000230A93FAA3F1B1FA81F193FAA3F34FF036
:103DC0000F0EB3FA83F389000EFA01F19B0022EA89
:103DD000010207FA03F3134343622B46BEE7026A6C
:103DE00094FAA4F3B3FA83F394FAA4F14FF00F0E0C
:103DF000B1FA81F19B000EFA03F3890022EA030273
:103E000007FA01F313430362E7E700BFF475000804
:103E100038B500F00F02194BC0F3031053F82240DD
:103E20000D46FFF785FD04FB04F2016802EB420337
:103E30000B40B3FBF2F3013B012B05D8EB1E022B29
:103E4000436809D823434360032D08D1012221464A
:103E5000BDE83840FFF750BF23EA04034360012D5B
:103E6000F4D0052D01D0022D01D10222EFE7214629
:103E70000022BDE83840FFF729BF00BFF4750008F5
:103E80004309012200F01F0002FA00F02033044A27
:103E900042F82300BFF34F8FBFF36F8F704700BF0F
:103EA00000E100E042681649920110B58B180468E1
:103EB0008C5082685A60C2689A600269DA6042690E
:103EC0001A61026A9A610022DA61DA849A84DA85D8
:103ED0009A85B0F91A2001320AD108225A6118468F
:103EE00001F027FA58B10748BDE81040FEF7FCB9C9
:103EF000B0F9182001320CBF04220C22EEE710BDED
:103F0000CC1A002034760008F7B5194E074656F84B
:103F1000200000282AD0174CBD0163591A685206A8
:103F20000AD5DB68590607D5134B01211B68984752
:103F300063596FF040021A6063591A6892060CD5F3
:103F4000DB68980609D50C4B56F827001B68002142
:103F5000984763596FF020021A6063591A68110775
:103F600004D55A69D20744BF5B68019303B0F0BD22
:103F7000A81A0020CC1A0020A41A00200020FFF765
:103F8000C3BF0120FFF7C0BF0220FFF7BDBF032062
:103F9000FFF7BABF0420FFF7B7BF0520FFF7B4BF94
:103FA000F0B50E4687B004466D4930461546FEF71B
:103FB00045F96C4907462846FEF740F90146384660
:103FC000FEF71EF9684B2060984200F09C8036D8BE
:103FD000A3F50063984269D003F5806398427CD0D2
:103FE0005F493046FEF7EEF85E492846FEF7EAF8EC
:103FF000721C03D001213046FFF70AFF6B1C03D06F
:1040000001212846FFF704FF4FF41653A360002355
:10401000E360236163612362268365832046FFF7A3
:1040200041FF2268514B9A4207D1514B514801221E
:104030001A6021464C2202F0BBFB07B0F0BD4E4B8C
:1040400098421DD003F58063984272D0A3F5444393
:104050009842C5D1494B1A6A42F480121A621A6A10
:1040600022F480121A62002204921A6C42F4801226
:104070001A641B6C03F480130493049B04232AE04A
:104080003E4B5A6A42F010025A625A6A002122F0EC
:1040900010025A6200915A6C42F010025A645B6C32
:1040A000616003F010030093009B99E7334B1A6A99
:1040B00042F400321A621A6A22F400321A620022B2
:1040C00001921A6C42F400321A641B6C03F4003340
:1040D0000193019B0123636082E7284B1A6A42F433
:1040E00080221A621A6A22F480221A620022029244
:1040F0001A6C42F480221A641B6C03F4802302932E
:10410000029B0223E7E71D4B1A6A42F400221A625F
:104110001A6A22F400221A62002203921A6C42F4F4
:1041200000221A641B6C03F400230393039B0323F4
:10413000D1E7124B5A6A42F020025A625A6A22F0C0
:1041400020025A62002205925A6C42F020025A6400
:104150005B6C03F020030593059B0523BBE700BFC1
:10416000B87600084C760008004C0040004400403F
:10417000C81A0020E4280020001001400038024046
:104180008160FFF78FBE0000034B19604168034B4D
:1041900043F82120704700BFA41A0020A81A00206D
:1041A00038B543680D46052B2BD8DFE803F0031B19
:1041B0001E2124272149252421489B013AB3C258B6
:1041C000D3680DBB43F02003D360204600F0C2F952
:1041D0006209012304F0170403FA04F4194B43F8AD
:1041E000224038BD18492624E6E718492724E3E78A
:1041F00017493424E0E717493524DDE716494724F9
:10420000DAE700210C46D7E743F04003DCE7C35868
:10421000DA6835B922F02002DA60DB681A0606D5C2
:1042200038BD22F04002DA60DB689B0604D42046E9
:10423000BDE83840FFF724BE38BD00BF7D3F000811
:10424000CC1A002000E100E0833F0008893F00080D
:104250008F3F0008953F00089B3F00084368034AD2
:104260009B01D3581868C0F340107047CC1A002047
:10427000416810B504462046FFF7F0FF0028FAD049
:104280008901034B5B585868C0F3080010BD00BF9C
:10429000CC1A00204368034A9B01D3581868C0F326
:1042A000C0107047CC1A002038B54468054628462F
:1042B000FFF7F0FF0028FAD0A401034B1B59C1F30C
:1042C0000801596038BD00BFCC1A002008B500F0C5
:1042D00005F8BDE8084001F0AFBA0000174A1849D8
:1042E000936803F00C03042B10B50DD0082B0DD0F0
:1042F000144B0B60114B144A9B68C3F30313D25C3D
:104300000B68D3400B6010BD104BF2E75468506847
:1043100052686302C2F3881200F03F004CBF0B4B9F
:10432000084BB3FBF0F35343044A5268C2F3014213
:1043300001325200B3FBF2F3DBE700BF003802406A
:10434000E00100200024F4002477000800127A0025
:104350002DE9F041ACB0304B002101911A6C42F0D4
:1043600080521A641B6C03F080530193019B2B4B0A
:1043700002911A6842F440421A601B6803F44043F9
:104380000293029B012308930746C0B909934FF497
:10439000B47302244FF480050826119308A807235C
:1043A0000E940F95109612941393149400F0E2FB60
:1043B00018B901F0F5F9804618B1002028E005236E
:1043C000E4E74FF4C0731C934FF48073159315A862
:1043D0004FF000632A931B961D9600F0DBF80F2325
:1043E00003934FF4A053069305214FF4805303A881
:1043F0000494CDF81480079301F0CCF8024600280D
:10440000DBD10FB94FF08062294601F077F8012027
:104410002CB0BDE8F08100BF0038024000700040C1
:10442000F0B595B00024234B00941A6C42F08052F2
:104430001A641B6C03F080530093009B1E4B019485
:104440001A6842F440421A601B68089403F440431F
:104450000193019B0E940323079310230B930F9357
:104460004FF4B473022610930127062307A80A9776
:104470000D961196129300F07DFB0546B8B90F23F7
:1044800002934FF4A0530490059305214FF48053F9
:1044900002A80396069301F07DF8024628B901466A
:1044A00001F02CF8384615B0F0BD2846FBE7204651
:1044B000F9E700BF003802400070004008B5012055
:1044C000FFF746FF18B9FFF7ABFF00B9FEE74FF063
:1044D000C06200210120BDE8084001F00FB80000D3
:1044E000174AD2F8883010B543F47003154CC2F85F
:1044F00088302368002143F001032360A160236812
:1045000023F0847323F4803323600F4B63602368AC
:1045100023F4802323604FF00063E16093600B4B32
:104520000B4A1A6001F088F9FFF7C8FF236A43F0CD
:1045300008032362236A23F00803236210BD00BF2F
:1045400000ED00E00038024010300024E0010020BF
:1045500080A8120130B50C4CA268A468B4F1006FB9
:1045600013460CD1131F094C094A53F8045F42F853
:10457000045FA242F9D1044A4FF000539360103017
:1045800043F8201030BD00BF00ED00E0C001002066
:10459000FCFFFF1F2DE9F04F036813F0010685B003
:1045A00004460BD0C849866BD1F88C2022F0C0623B
:1045B0003243B6FA86F6C1F88C20760999070BD5F6
:1045C000C148E16BD0F88C2022F0C0520A43002988
:1045D000C0F88C2008BF012613F0040512D0BA4998
:1045E000256BD1F88C20B5F5801F22F4401242EAE9
:1045F000050218BFB5FA85F5C1F88C2012BF6D0908
:10460000002501261A070FD5AF48616BD0F88C2022
:1046100022F440020A43B1F5800FC0F88C2000F06C
:10462000BF81002908BF01259F0633D500230393CE
:10463000A54BA64F1A6C42F080521A641B6C03F013
:1046400080530393039B3B6843F480733B6001F00A
:1046500013F980463B68D80540F1A4819A4F3B6F1F
:1046600013F4407340F0A981236C03F44072B2F557
:10467000407F954A40F0C481916823F0704021F456
:10468000F81120F4407001439160116FC3F30B03E4
:104690000B4313672368DB0642BF8D4B94F8582009
:1046A0001A6023681F0608D58749E06CD1F894206A
:1046B00022F440020243C1F89420580608D58249EA
:1046C000A06CD1F8942022F080620243C1F89420BB
:1046D000D9050CD57C48616DD0F8942022F0006299
:1046E0000A43B1F1006FC0F8942008BF01259A0574
:1046F00008D57549606CD1F8942022F080520243AD
:10470000C1F894205F0500F17F81012E40F08A817D
:10471000704E6D4F0023336001F0AEF80196804675
:104720003B68180100F10B822068C10701D5A36B1B
:1047300023B1820746D5E36B002B43D1624F4FF480
:104740004031D7F8842091FAA1FE4FF0706CBEFA88
:104750008EFED7F884309CFAACF847F6C07BB8FAE6
:1047600088F89BFAABFBBBFA8BFB91FAA1F1B1FA8B
:1047700081F19CFAACFC4FF0E04ABCFA8CFC9AFA4E
:10478000AAFAA66802F4403206FA0BF96669BAFA88
:104790008AFA22FA0EF206FA0AFA03F070636668E1
:1047A000013249EA0A0923FA08F322F0004249EAF1
:1047B000060903FA0CF3013A49EA03038A4013435A
:1047C000C7F88430430703D5236BB3F5801F05D0AA
:1047D000070750D5636BB3F5800F4CD13A4F4FF4B8
:1047E0004031D7F8842091FAA1FE4FF0E04CBEFA98
:1047F0008EFED7F884309CFAACF847F6C07BB8FA46
:1048000088F89BFAABFBBBFA8BFB91FAA1F14FF056
:10481000706AB1FA81F19AFAAAFABAFA8AFA9CFA9B
:10482000ACFCA66802F4403206FA0BF9266922FABB
:104830000EF206FA0AFA03F0E04366680132BCFAA7
:104840008CFC49EA0A0923FA08F322F0004249EAFB
:10485000060903FA0CF3013A8A4049EA03031343B9
:10486000C7F88430D7F88C20A36A22F01F02013BDE
:104870001343C7F88C30460553D5236DB3F1005F61
:104880004FD1DFF844C04FF4403BDCF884209BFA62
:10489000ABF84FF0E047B8FA88F8DCF8841097FAE4
:1048A000A7F947F6C07AB9FA89F99AFAAAFABAFAD0
:1048B0008AFA9BFAABFB4FF0706EBBFA8BFB9EFA49
:1048C000AEFEBEFA8EFE07E00038024000700040E7
:1048D000E01147426800474297FAA7F7E368A668E5
:1048E0005B08013B02F4403206FA0AFA03FA0BF3C2
:1048F000666801F0E04122FA08F8B7FA87F743EA60
:104900000A0321FA09F908F10108334309FA07F704
:104910004FEA48081F4308FA0EFE47EA0E07CCF894
:10492000847001052CD547F6C07797FAA7F74FF4A6
:104930004033B7FA87F793FAA3F34FF07060B3FAF6
:1049400083F290FAA0F04FF0E041B0FA80F091FAD3
:10495000A1F1E3685B08013B9340A26802FA07F704
:1049600062683B431343226902FA00F06269B1FABC
:1049700081F102FA01F103437B4A0B43C2F8843010
:10498000019A794E0123136000F076FF07463368E1
:104990001A014BD400F070FFC01B0228F7D908E0C1
:1049A000012641E600F068FFA0EB080002287FF630
:1049B00051AE032005B0BDE8F08F226C02F44072C6
:1049C00093423FF451AE3B6F684A0121116023F4DA
:1049D0004073002111603B673B6FD9077FF544AE00
:1049E00000F04AFF41F2883980463B6F9A073FF555
:1049F0003BAE00F041FFA0EB08004845F5D9D8E7F1
:104A0000916821F4F8113FE65748216DD0F89420C1
:104A100022F000520A43B1F1005FC0F894207FF405
:104A200074AE75E6B3F5006F3FF472AE012D40F041
:104A300084804F4D4C4E00232B6000F01DFF074635
:104A400033689B0000F183802068460701D5236B03
:104A50001BB1010738D5636BB3BB43494FF44036F4
:104A6000D1F8883096FAA6FE47F6C072BEFA8EFEDE
:104A700092FAA2F2B2FA82F796FAA6F64FF0706CAA
:104A8000B6FA86F69CFAACFCE26903F44033BA400D
:104A9000676ABCFA8CFC23FA0EF307FA0CF70133B1
:104AA0003A4323F00043A769013B3A43B340134321
:104AB000C1F88830D1F88C30E26A23F4F853013A17
:104AC00043EA0223C1F88C30C2052DD5636DB3F1E2
:104AD000006F29D124494FF07060D1F8882090FAF6
:104AE000A0F647F6C07EB6FA86F69EFAAEFE4FF402
:104AF0004033BEFA8EFE93FAA3F3B3FA83F790FA2B
:104B0000A0F0236A5B08013BBB40E769A46907FA90
:104B10000EF702F07062B0FA80F03B43F24023439C
:104B200082401343C1F8883001232B6000F0A4FEBB
:104B30000D4C054623689B0010D500203AE700F095
:104B40009BFEA0EB080002287FF6EAAD31E700F0FB
:104B500093FEC01B02287FF673AF2AE700F08CFE9D
:104B6000401B0228E6D924E700380240400E4742A5
:104B7000700047420368F7B5DF07044638D423685E
:104B80009E077AD423681E0700F1CF8023685D0753
:104B900028D500230193AF4BAF4D1A6C42F08052E1
:104BA0001A641B6C03F080530193019B2B6843F440
:104BB00080732B6000F060FE06462B68DA0540F13A
:104BC000D680A64B227A1A70A368002B00F0DD80F5
:104BD00000F052FE9F4D064641F288372B6F9B072F
:104BE00040F1CC80A269002A40F0DF8000201EE066
:104BF000984B9A6802F00C02042A10D09A6802F0CE
:104C00000C02082A02D15B685D0208D4914A9368BD
:104C100003F00C030C2B0CD15368580209D58D4BB3
:104C20001B689903ABD56368002BA8D1012003B0A2
:104C3000F0BD8B4B22791A7063687BB100F01CFECB
:104C4000844D064641F288372B689A0397D400F0CA
:104C500013FE801BB842F7D90320E8E700F00CFEF2
:104C60007C4D064641F288372B689B0387D500F0C0
:104C700003FE801BB842F7D9EEE7764B9A6812F034
:104C80000C0F10D09A6802F00C02082A02D15B685F
:104C9000580208D56F4A936803F00C030C2B16D109
:104CA0005368590213D46B4B1A68920702D5E26815
:104CB000012ABBD11868F82292FAA2F2B2FA82F164
:104CC00022698A4020F0F8010A431A605AE7E26834
:104CD000644BDAB101221A6000F0CEFD5D4D06464C
:104CE0002B689B070CD52968F82393FAA3F3B3FA32
:104CF00083F22369934021F0F80213432B6041E7CC
:104D000000F0BAFD801B0228EAD9A5E71A6000F07E
:104D1000B3FD504D06462B689F077FF533AF00F07B
:104D2000ABFD801B0228F6D996E762694E4B7AB13B
:104D300001221A6000F0A0FD464D06466B6F9807F1
:104D40003FF524AF00F098FD801B0228F6D983E7D9
:104D50001A6000F091FD3F4D06466B6F99077FF595
:104D600015AF00F089FD801B0228F6D974E700F02A
:104D700083FD801B02287FF620AF6DE700F07CFDED
:104D8000801BB8427FF62AAF66E700F075FD314D13
:104D9000064641F288372B6F98077FF523AF00F066
:104DA0006BFD801BB842F6D956E72A4DAB6803F07D
:104DB0000C03082B3FF43AAF2C4E0023022A336039
:104DC00056D100F059FD07462B6899013CD447F6AF
:104DD000C07E9EFAAEFE4FF44032BEFA8EFE92FACC
:104DE000A2F24FF07060B2FA82F790FAA0F04FF0A2
:104DF000E041B0FA80F091FAA1F1226AE36913432D
:104E0000626A02FA0EF21343A26A5208013ABA40E9
:104E10001343E26A02FA00F0226B0E4CB1FA81F100
:104E2000034302FA01F10B436B600123336000F08E
:104E300023FD054623689A013FF5D8AE00F01CFD1E
:104E4000401B0228F6D907E700F016FDC01B022818
:104E5000BAD901E7003802400070004070380240C3
:104E60000238024000004742800E4742600047423D
:104E700000F002FD04462B689B017FF5B7AE00F001
:104E8000FBFC001B0228F6D9E6E600BF2B4B9A6814
:104E900002F00C02082A07D00C2A2CD0284B2948F3
:104EA000042A18BF184670475A6859685B6811F49D
:104EB000800F02F03F0247F6C07191FAA1F0B0FAFC
:104EC00080F003EA010323FA00F314BF1D481C48D5
:104ED000B0FBF2F05843194B4FF440325B6892FA42
:104EE000A2F2B2FA82F203F44033D34001335B0002
:104EF000B0FBF3F070475A6859685B6811F4800F93
:104F000002F03F0247F6C07191FAA1F0B0FA80F0CA
:104F100003EA010323FA00F314BF0A480848B0FB70
:104F2000F2F05843054B4FF0E0425B6892FAA2F270
:104F3000B2FA82F203F0E043D340D9E700380240EE
:104F40000024F40000127A002DE9F04F85B00B68C0
:104F5000DFF8A081654ADFF8A091019300234FF0AC
:104F6000010E019C0EFA03FE0EEA0406B64540F05F
:104F7000AA804C6824F01007022F16D14FEAD30AFA
:104F800000EB8A0A03F0070BDAF820504FEA8B0B8C
:104F90004FF00F0C0CFA0BFC25EA0C0C0D6905FA0E
:104FA0000BF545EA0C05CAF820504FEA430A0325E1
:104FB000D0F800B005FA0AF5ED4304F0030C0BEA53
:104FC000050B0CFA0AFC013F4CEA0B0C012FC0F850
:104FD00000C011D8876807EA050BCF6807FA0AFCFA
:104FE0004CEA0B078760476827EA0E0EC4F30017E8
:104FF0009F4047EA0E074760C7683D408F6807FA41
:105000000AF73D43C560E5005DD54FF0000BCDF8D4
:105010000CB0D8F84470364D47F48047C8F8447057
:10502000D8F8447007F480470397039F23F00307E1
:1050300007F1804707F59C3703F0030CD7F808A069
:105040004FEA8C0C4FF00F0E0EFA0CFEA8422AEA23
:105050000E0E3FD005F58065A8423DD005F5806570
:10506000A8423BD005F58065A84239D005F580659A
:10507000A84237D0484537D005F50065A84214BF8F
:105080000825062505FA0CF545EA0E05BD601568EC
:10509000F74314F4803F0CBF3D403543156055681D
:1050A00014F4003F0CBF3D4035435560956814F43F
:1050B000801F0CBF3D4035439560D568A40254BFA6
:1050C0003D403543D5600133102B7FF448AF05B028
:1050D000BDE8F08F5D46D5E70125D3E70225D1E78E
:1050E0000325CFE70425CDE70525CBE7003C0140AC
:1050F0000000024000380240001402402DE9F04751
:105100000668C2683369C16923F4405313433361AD
:10511000044683680069F2680343606922F416421A
:10512000034322F00C020B431343F3607369A2693B
:1051300023F440731343B1F5004F73617A4B7CD174
:105140009E4203D003F580639E4244D100F0F0FA02
:10515000192505FB00F360684FF064094000B3FBBC
:10516000F0F3B3FBF9F34FEA031800F0E1FA6368D8
:1051700068435B00B0FBF3F700F0DAFA636868435A
:105180005B00B0FBF3F3B3FBF9F309FB1373DB0034
:105190003233B3FBF9F35B0003F4F87700F0C8FA9D
:1051A000626868435200B0FBF2FA00F0C1FA63682B
:1051B00068435B00B0FBF3F3B3FBF9F309FB13A304
:1051C000DB003233B3FBF9F303F0070343443B4402
:1051D000B360BDE8F08700F093FA192505FB00F3F2
:1051E00060684FF064094000B3FBF0F3B3FBF9F3E0
:1051F0004FEA031800F084FA636868435B00B0FB71
:10520000F3F700F07DFA636868435B00B0FBF3F3EB
:10521000B3FBF9F309FB1373DB003233B3FBF9F390
:105220005B0003F4F87700F06BFA626868435200A1
:10523000B0FBF2FA00F064FAB9E79E4202D03B4BB1
:105240009E4240D100F074FA676819254FF0640956
:1052500005FB00F3BF00B3FBF7F3B3FBF9F31F014A
:1052600000F066FA636868439B00B0FBF3F800F057
:105270005FFA636868439B00B0FBF3F3B3FBF9F399
:1052800009FB13831B013233B3FBF9F303F0F0087E
:1052900000F04EFA626868439200B0FBF2FA00F048
:1052A00047FA636868439B00B0FBF3F3B3FBF9F381
:1052B00009FB13A31B013233B3FBF9F303F00F0314
:1052C00043EA080383E700F01BFA676819254FF0EB
:1052D000640905FB00F3BF00B3FBF7F3B3FBF9F37D
:1052E0001F0100F00DFA636868439B00B0FBF3F800
:1052F00000F006FA636868439B00B0FBF3F3B3FB6E
:10530000F9F309FB13831B013233B3FBF9F303F009
:10531000F00800F0F5F9626868439200B0FBF2FA19
:1053200000F0EEF9BDE700BF00100140001401409D
:10533000704710B5044640B390F8393003F0FF02CF
:105340001BB980F83820FFF7F3FF2268242384F884
:105350003930D36823F40053D3602046FFF7CEFEE4
:1053600023681A6922F490421A615A6922F02A02CB
:105370005A61DA6842F40052DA6000202023E063C8
:1053800084F8393084F83A3010BD012010BD7047E0
:105390002E4A0368904212D0B0F1804F0FD0A2F590
:1053A0007C4290420BD002F58062904207D002F519
:1053B0008062904203D002F5784290421DD14A6843
:1053C00023F070031343214A904204D1CA6823F4A6
:1053D0004073134328E0B0F1804FF7D01C4A90424D
:1053E000F4D002F580629042F0D002F580629042E3
:1053F000ECD002F578429042E8D0164A9042E5D0CF
:1054000002F580629042E1D002F580629042DDD0E8
:10541000A2F598329042D9D002F580629042D5D060
:1054200002F580629042D1D003608B68C3620B6842
:105430008362064B984206D003F58063984202D0FF
:105440000123436170470B690363F9E700000140E2
:10545000000400400040014010B50446A0B190F89F
:10546000393003F0FF021BB980F83820FFF78FFFB7
:10547000022384F839302068211DFFF789FF0123BA
:1054800084F83930002010BD012010BD036A10B52A
:1054900001248C4023EA04030362036A8A401A430E
:1054A000026210BD10B5044601220068FFF7EEFF4E
:1054B0002368084A934203D002F58062934203D1E5
:1054C0005A6C42F400425A641A6842F001021A60AF
:1054D000002010BD00000140FFF7E4BF064A136939
:1054E000012923F00403136101D130BF704740BF8D
:1054F00020BF20BF704700BF00ED00E070B50D4633
:1055000088B01646204CF0B90190236B43F001039C
:105510002363236B059003F001030193019B079024
:105520004FF4807303930223049303A903231748C2
:105530000693FFF709FDA16821F0EC61314329438F
:10554000A16008B070BD00230293226B104842F0A6
:1055500004022263226B059302F004020292029A73
:1055600007934FF4007203920222049203A90322CC
:105570000692FFF7E9FCA36845EAC60123F07845E7
:105580000D43A560DDE700BF003802400000024087
:1055900000080240564B1A6802F00F028A422DE9B9
:1055A000F04105460E4630D32A68940737D4D00719
:1055B0003DD44F4B1A6802F00F029642C0F088802B
:1055C0002A68510700F18C80130707D5494A2969D9
:1055D000936823F4604343EAC1039360FFF756FCEA
:1055E000444BF0229B6892FAA2F2B2FA82F203F0E4
:1055F000F003D340404AD35CD840404B18600F20A2
:10560000FEF71EF90020BDE8F081CAB21A701B68CF
:1056100003F00F039942C7D00120BDE8F08135495E
:10562000A8688B6823F0F00303438B60BFE76A68C8
:10563000304B012A1ED11B6813F4003FECD02D4CD7
:10564000A36823F003031343A36000F015F96B680C
:10565000012B074641F2883816D1A36803F00C03EA
:10566000042BA6D000F008F9C01B4045F5D9032053
:10567000BDE8F081911E01291B6802D813F0007F5C
:10568000DCE713F0020FD9E7022B0AD1A36803F07D
:105690000C03082B8DD000F0EFF8C01B4045F5D966
:1056A000E5E7032B0FD1A36803F00C030C2B80D08C
:1056B00000F0E2F8C01B4045F5D9D8E700F0DCF86F
:1056C000C01B4045D3D8A36813F00C0FF6D170E788
:1056D000F2B21A701B6803F00F039E429CD16FE771
:1056E0000449E8688B6823F4E05303438B606BE75D
:1056F000003C02400038024034770008E0010020FE
:10570000084B4FF4E0529B6892FAA2F2B2FA82F28E
:1057100003F4E053D340044AD35C044A1068D840F1
:10572000704700BF0038024034770008E0010020D5
:10573000084B4FF460429B6892FAA2F2B2FA82F2EE
:1057400003F46043D340044AD35C044A1068D84051
:10575000704700BF0038024034770008E0010020A5
:105760000F2303600B4B9A6802F0030242609A68B1
:1057700002F0F00282609A6802F4E052C2609B6814
:10578000DB0803F4E0530361034B1B6803F00F03D2
:105790000B60704700380240003C02407047000038
:1057A00037B500230193224B1A6C42F080521A64E1
:1057B0001B6C03F080530193019B4FF4803393FAE9
:1057C000A3F3B3FA83F303F1845303F560339B002F
:1057D00001221A6000F050F8164C05466368DA039F
:1057E00015D54FF4003393FAA3F3B3FA83F303F11F
:1057F000845303F560339B0001221A6000F03CF8EB
:105800000C4C054663689B030AD5002006E000F0B7
:1058100033F8401BB0F57A7FE0D9032003B030BDE8
:1058200000F02AF8401BB0F57A7FEBD9F5E700BF0E
:10583000003802400070004008B50A4B1A6842F474
:1058400000721A601A6842F480621A601A6842F4A0
:1058500080721A600F20FDF7F3FFFFF79FFF002013
:1058600008BD00BF003C0240024A136801331360C8
:10587000704700BF30290020014B1868704700BFF7
:105880003029002070477047704700EB011202F189
:105890009800D2F8A4301B68184710B480B114687F
:1058A00053680CB9DA070BD513F0010F4FEA630305
:1058B0001CBFC2581459184423465DF8044B1847BE
:1058C0005DF8044B70470368184708B10B68036024
:1058D0007047704770B50546044655F84C3B0E4678
:1058E0001B68984728463146FEF74AFC2368C4F8EF
:1058F000B86020465B68BDE870401847884238B5FC
:1059000004460D460AD0FCF742FA3CB1EB681BB1E5
:105910005B68294620469847EB68E360204638BD1F
:105920002DE9F04387B00025914600950246019588
:10593000044688461F469DE80300274B42F8083B73
:10594000264B82E80300236148F207036361244B7E
:10595000E561A46122626362BFF36F8FBFF34F8F73
:1059600004F14C064C226563656484F8485084F861
:105970004950304600F041FF02A9C4F8A450C4F8D1
:10598000B450C4F8B870174D174F029704F198003F
:105990000595FFF7B3FF02A8FCF7F9F902A904F196
:1059A000A80002970595FFF7A9FF02A8FCF7EFF9F9
:1059B0004A4641463046FEF7F3FAD4F8B81030466E
:1059C000FEF7DEFB304622460849FEF7DDFB2046A7
:1059D00007B0BDE8F08300BF5877000801A090E849
:1059E0009B58000844770008855800088B58000829
:1059F0002DE9FF410546884655F84C3B1B68044697
:105A000016469847FCF746FCD8F80C70300197B161
:105A1000983041462044FFF771FF01223146284665
:105A2000FEF7BEFBFCF74CFC236820465B689847FA
:105A300004B0BDE8F081074B00939830064B039308
:105A400069462044FFF75AFF6846FCF7A0F93A463A
:105A5000E4E700BF8558000844770008704700005D
:105A600010B50446FFF75CFF014B2360204610BDD4
:105A70007077000810B5034B03600446FCF7CAF9C1
:105A8000204610BD7077000810B50446FFF7F2FFFE
:105A9000204600F0C3F9204610BD10B50446FCF7BF
:105AA000F9FB23682BB9E068FCF789FB01236060F0
:105AB0002360BDE81040FCF703BC38B50546FCF791
:105AC000E9FB2C6824B1E868FCF779FB6C68041BDF
:105AD000FCF7F6FB204638BD38B50546FCF7DAFB87
